:02000002D0002C
:1040000000400D00545B0D00000006000C0005018F
:084010000401BD0B00000000DB
:04401800AC570D0094
:10401C0009480A49884208B505D0094A824202D0AB
:10402C00121A01F071FB0748074A0021121A01F01D
:10403C0079FB014808BD00BF9CE50320C45A0D0064
:10404C0004E6032004E60320F0E7032070B5074ED6
:10405C00074C01F0FFF9A41BA4080025A54200D1D0
:10406C0070BD56F8043B98470135F7E7945A0D009C
:10407C00B85A0D0001F092B908B501F090F9BDE8FD
:10408C00084001F0A9B900F077BA00F075BA00F059
:10409C007BBA00F079BA0078B0FA80F0400970472A
:1040AC00012303707047704713B5094C094900236D
:1040BC00009340F25B72084B204600F057F8074A19
:1040CC000749204602B0BDE8104001F0F5B900BF29
:1040DC0008E60320C0570D00B3400D0004E6032092
:1040EC001D420D0091F85C3010B50446016013B10F
:1040FC00886D00F0BDF8204610BD10B5036893F82C
:10410C005C20044612B1986D00F0BAF8204610BD40
:10411C00F8B51F469DF8243004460D4616462BB1C3
:10412C00012380F85C30583000F09AF8089B236328
:10413C000023636306B1A66425B1294604F1380057
:10414C0000F0ADFC069B2365079BE069A4F84C705E
:10415C00FF2BB8BFFF23A4F8543008B1FFF799FF29
:10416C00B4F85400FFF791FFE061F8BD2DE9FF4171
:10417C0004460025174698460E4600F01DFF0D49D3
:10418C00E56104F1380000F076FC9DF82830A56458
:10419C00CDE90283FF220F23CDE90032204684F8BB
:1041AC005C503B462A463146FFF7B2FF204604B02E
:1041BC00BDE8F0817E580D0013B50446014601A8F8
:1041CC00FFF790FFE369E0221A70E36900225A704E
:1041DC00E1690222204600F0AEFC204600F0A2FE6F
:1041EC0000F06EF8C4E9090001A8FFF786FF02B0E1
:1041FC0010BD38B5044600F0B4FC002814BF0125EE
:10420C00002502D1204600F08DFE284638BD000066
:10421C0038B50546FFF7EDFF10B12846FFF7CCFF88
:10422C00E86908B1FFF735FF05F1380000F0D8FB5D
:10423C00AC690A4B2B607CB16368013B63605BB972
:10424C00236820469B689847A368013BA3601BB971
:10425C0023682046DB689847284638BDA4580D00D3
:10426C0008B5024B1B681B6B019308BD4802030089
:10427C0008B5024B1B689B6B019308BD48020300F9
:10428C0008B5024B1B681B6C019308BD4802030068
:10429C0008B5024B1B685B6C019308BD4802030018
:1042AC0008B5024B1B689B6C019308BD48020300C8
:1042BC0008B5024B1B685B68019308BD180203002C
:1042CC0008B5024B1B685B69019308BD180203001B
:1042DC0008B5024B1B685B69019308BD6C020300B7
:1042EC0008B5024B1B685B69019308BD64020300AF
:1042FC0008B5024B1B681B6A019308BD64020300DE
:10430C0008B5024B1B689B6A019308BD640203004D
:10431C0008B5024B1B689B68019308BD680203003B
:10432C0008B5024B1B68DB68019308BD68020300EB
:10433C0008B5024B1B689B69019308BD380203004A
:10434C0008B5024B1B68DB69019308BD38020300FA
:10435C0008B5024B1B681B6A019308BD38020300A9
:10436C0008B5024B1B689B6A019308BD3802030019
:10437C0008B5024B1B681B6B019308BD3802030088
:10438C0008B5024B1B689B6B019308BD38020300F8
:10439C0008B5024B1B681B68019308BD3C02030067
:1043AC0008B5024B1B68DB68019308BD3C02030097
:1043BC0008B5024B1B681B69019308BD3C02030046
:1043CC0008B5024B1B685B69019308BD3C020300F6
:1043DC0008B5024B1B689B69019308BD3C020300A6
:1043EC0008B5024B1B68DB69019308BD3C02030056
:1043FC0008B5024B1B689B6A019308BD3C02030085
:10440C0008B5024B1B681B68019308BD4C020300E6
:10441C0008B5024B1B681B69019308BD4C020300D5
:10442C0008B5024B1B685B69019308BD4C02030085
:10443C0008B5024B1B689B69019308BD4C02030035
:10444C0008B5024B1B68DB69019308BD4C020300E5
:10445C0008B5024B1B681B6A019308BD4C02030094
:10446C0008B5024B1B681B6D019308BD600203006D
:10447C0008B5024B1B685B68019308BD2002030062
:10448C0008B5034B1B68D3F88830019308BD0000B6
:10449C002002030008B5034B1B68D3F8943001933A
:1044AC0008BD00002002030008B5024B1B68DB6B43
:1044BC00019308BD4402030008B5024B1B685B68FE
:1044CC00019308BD4002030008B5024B1B689B68B2
:1044DC00019308BD4002030008B5024B1B68DB6862
:1044EC00019308BD4002030008B5024B1B681B6911
:1044FC00019308BD4002030008B5024B1B685B69C1
:10450C00019308BD4002030008B5024B1B689B6970
:10451C00019308BD4002030008B5024B1B68DB6920
:10452C00019308BD4002030008B5024B1B681B6ACF
:10453C00019308BD4002030008B5024B1B681B6BBE
:10454C00019308BD4002030008B5024B1B685B6B6E
:10455C00019308BD4002030008B5024B1B681B6C9D
:10456C00019308BD4002030008B5024B1B685B6C4D
:10457C00019308BD4002030008B5024B1B681B6881
:10458C00019308BD1C02030008B5024B1B685B6855
:10459C00019308BD1C02030008B5024B1B689B6805
:1045AC00019308BD1C02030008B5024B1B68DB6BB2
:1045BC00019308BD1C02030008B5024B1B685B6C21
:1045CC00019308BD1C02030010B50446006808B135
:1045DC00FFF766FE204610BD10B58368044613B184
:1045EC00032201469847204610BD000010B5064C2A
:1045FC00002320462360FFF74BFE2046034A044964
:10460C00BDE8104000F058BF68E6032004E6032024
:10461C00D5450D00002240681146FFF785BF0022EA
:10462C0040681146FFF790BF40680022FFF784BF37
:10463C004068002281F00101FFF76EBF0023406843
:10464C001A461946FFF760BF002340681A46194600
:10465C00FFF752BF002240681146FFF745BF00220A
:10466C0040681146FFF730BF406800220221FFF777
:10467C0033BF002340681A46FFF71EBF024B0322CC
:10468C005A60024A1A6070476CE60320E0570D002E
:10469C00704710B51821044600F013FF204610BDDA
:1046AC00F0B5037D062B8DB00E4600F104074FF0DC
:1046BC00000412D000F1080515F8011D0A2230463D
:1046CC0000F05BF9AF42044419D0002CF4D02E2139
:1046DC00304600F04FF90444EEE72F236A46394682
:1046EC000A208DF80040FFF7FBFD684601F050F8FA
:1046FC0033680246DB6869463046984704462046D4
:10470C000DB0F0BD10B5054B0446112240F8043B2A
:10471C00002101F007F8204610BD00BF1C580D0009
:10472C000346074A10B543F8042B01F1100251F867
:10473C00044B43F8044B9142F9D10A781A7010BD1E
:10474C001C580D00037D042B04D14068003818BFA1
:10475C0001207047062B07D143683BB983682BB9FE
:10476C00C3681BB90069F1E700207047012070474E
:10477C0010B59DF8084044EA032343EA024242EA9A
:10478C00016104234160037510BD000013B5054B96
:10479C000360CB7800938B784A780978FFF7E8FFB1
:1047AC0002B010BD1C580D00014B024A1A60704734
:1047BC0074E6032028580D00002340681A46FFF7C2
:1047CC007BBE406800220221FFF786BE00224068B3
:1047DC001146FFF779BE002240681146FFF784BEF0
:1047EC00002340681A461946FFF786BE002340682E
:1047FC001A461946FFF788BE40680021FFF7ACBE89
:10480C0040680021FFF7B0BE4068002281F0010132
:10481C00FFF782BE40680022FFF78EBE0022406880
:10482C001146FFF791BE002240681146FFF77CBE8F
:10483C002DE9F043002495B016460D460746FFF7C8
:10484C0061FF214618220EA8009400F06BFF402354
:10485C00CDE90C3421466B460CAA3046FFF760FDBF
:10486C00044600284CD1024601216868FFF73CFE43
:10487C000221804622466868FFF736FE009E81467C
:10488C002146002E3CD000293AD17368022B03D06C
:10489C000A2B11D0F669F4E7B8F1000F0AD0716950
:1048AC0006A8043107ADFFF771FF0FCD3C1D0FC4F7
:1048BC002B6823704146EDE7B9F1000F01D1494651
:1048CC00E8E77469102201A800F02CFF06238DF88C
:1048DC00143001AD04F108031834186859682A46DD
:1048EC0003C20833A3421546F7D101A906A807ADA8
:1048FC00FFF716FF0FCD3C1D0FC42B682370DEE7AE
:10490C000098FFF705FD384615B0BDE8F0830000B0
:10491C00024B034A1A6000225A60704778E6032063
:10492C0034580D00F8B506460D468F180024BD42CC
:10493C000CD0336815F8011B9B6830469847031E52
:10494C0001DB1C44F3E7002C08BF1C462046F8BDD5
:10495C0013B50446084659B1019100F019FF2368BC
:10496C000199DB680246204602B0BDE810401847AA
:10497C0002B010BD03689B68184730B58BB000239C
:10498C008DF82430012A98BF0A2209AC0D46B1FBE0
:10499C00F2F101FB125303F0FF03092B94BF3033E8
:1049AC003733DBB2AA4204F8013DEFD92146FFF7B9
:1049BC00CFFF0BB030BD10B50446FFF70DFE2046FF
:1049CC0010BD00000348044A04490023836000F032
:1049DC0073BD00BF80E6032004E60320C3490D002D
:1049EC0010B504460068FFF7CFFD204610BD10B58A
:1049FC000446006808B1FFF7C7FD0023C4E9013382
:104A0C00236010BD38B504460D4600680131FFF730
:104A1C00C3FD10B1C4E90005012038BD10B5036811
:104A2C00044623B143688B4201D3012010BD2046BC
:104A3C00FFF7E8FF0028F9D0A368002BF5D1226816
:104A4C001370F2E737B50D46114601920446FFF795
:104A5C00E5FF019A28B92046FFF7C9FF204603B0AD
:104A6C0030BDA2602946206800F04EFE2268A36883
:104A7C000021D154F2E7002313B5C0E900330446FA
:104A8C008360037341B10846019100F081FE0199E6
:104A9C0002462046FFF7D6FF204602B010BD13B5E4
:104AAC00044659B10846019100F072FE0199024684
:104ABC002046FFF7C7FF204602B010BDFFF797FF57
:104ACC00F9E710B50446006818B1FFF75DFD002347
:104ADC00236010BD10B50446FFF7F3FF204610BD50
:104AEC0010B5094B094C022200201A60084B2060BB
:104AFC00A080A071A360FFF7BBFC2046054A0649C5
:104B0C00BDE8104000F0D8BC9CE6032090E60320E2
:104B1C000000FFFF04E60320E14A0D0013B5036813
:104B2C008DF80710DC6B01224FF0FF330DF10701FC
:104B3C00A04702B010BD10B40368DC6B4FF0FF331C
:104B4C00A4465DF8044B604713B5134602688DF814
:104B5C000710D46B0DF107010122A04702B010BD64
:104B6C00704738B543691A68002A054610DAB3F85D
:104B7C008620B3F884309A420AD103681B6998479F
:104B8C00044628B92B682846DB6A9847204638BD6E
:104B9C000120FCE743691868C043C00F7047704799
:104BAC00064B994210B500F10C0405D0084600F0F4
:104BBC008BFC002808BF0024204610BDD0570D00E8
:104BCC0010B5AC21044600F07CFC204610BDFFF76C
:104BDC005EBA2DE9F0414FF0000886B01D46C0F8D2
:104BEC00048004460E4617464146102202A800F0E7
:104BFC0099FD6B1C09D04FF47A70B5FBF0F3CDE93D
:104C0C00023800FB1353584304906069102300933F
:104C1C00006802AB41F2050240F6FF71FFF788FB1A
:104C2C00002807DAFFF7C0FC03686360002006B0B9
:104C3C00BDE8F0816069002300683A463146FFF711
:104C4C0097FB031EEEDB1846F1E7000038B58469CC
:104C5C000A4B036005467CB16368013B63605BB93A
:104C6C00236820469B689847A368013BA3601BB947
:104C7C0023682046DB689847284638BDA4580D00A9
:104C8C0010B50446FFF7E2FF20461C2100F019FC8A
:104C9C00204610BD70B54D69054B04468C3544F863
:104CAC00043B06460FCD0FC42B682370304670BDF5
:104CBC001C580D0010B54369B3F88620B3F8843046
:104CCC009A42044605D06369B3F8842013441879DA
:104CDC0010BD03681B6998470028F4D14FF0FF30D2
:104CEC00F6E710B54369B3F88620B3F884309A42DE
:104CFC00044608D06369B3F88420511CA3F88410CF
:104D0C001344187910BD03681B6998470028F1D12A
:104D1C004FF0FF30F6E7F8B543691746B3F8862035
:104D2C00B3F884309A4205460E4616D06969B1F83C
:104D3C008430B1F88640E41ABC4228BF3C460433A8
:104D4C0022461944304600F0DFFC6A69B2F8843020
:104D5C002344A2F884302046F8BD03681B699847A9
:104D6C000028E3D14FF0FF34F5E742690023A2F8A5
:104D7C0084304269A2F8863070472DE9F0411F4615
:104D8C0003680C46DB6A8AB0054616469847237DB5
:104D9C00D5F81480042B0CBF02200A200622012116
:104DAC00FFF7EEFAC8F800006B691B68002B08DAF5
:104DBC002B682846DB6A0024984720460AB0BDE8D9
:104DCC00F0812846FFF7D1FFB7B1002303A9F8B251
:104DDC000393ADF81030FFF77BFA0028E8D168692F
:104DEC0006230093006803AB41F20B0240F6FF71FF
:104DFC00FFF79EFA0028DBD11C22002103A800F04B
:104E0C0091FC237D042B1DD14FF407733046ADF874
:104E1C000C30FFF775FAADF80E006068FFF768FA12
:104E2C0004906B691C22186803A9FFF791FA0028FB
:104E3C00BED104340FCC6D698C350FC523682B7033
:104E4C000124BAE740F61C233046ADF80C30FFF7CE
:104E5C0057FA05AEADF80E00231D04F114071868BF
:104E6C005968324603C20833BB421646F7D1D8E71D
:104E7C0030B54269B2F886308BB004462BB1B2F82B
:104E8C0084209A4201D1FFF770FF616908680028FD
:104E9C0018DBB1F886507F2D14D804310823C5F1E6
:104EAC0080022944FFF75CFA002813DD6369B3F82C
:104EBC0086200AB9A3F884206369B3F886201044CD
:104ECC00A3F886006369B3F88600B3F88430C01A7F
:104EDC000BB030BDFFF768FB03680B2BF2D0FFF76C
:104EEC0063FB03680B2BEDD020230025CDE90235A5
:104EFC00FFF75AFB03680193084B0949009302AA78
:104F0C002B463220FFF7ACFA63691868FFF718FAE2
:104F1C0063694FF0FF321A60D4E700BF6F580D0081
:104F2C0068580D0010B5436904461868002801DB69
:104F3C00FFF706FA63694FF0FF321A6060691122BD
:104F4C0000218C3000F0EEFB2046BDE81040FFF74E
:104F5C000CBF10B5002304460160C0F884308830C3
:104F6C00FFF7D0FB204610BD73B500234FF47A72C7
:104F7C00C0E901320E4A0361026043610446AC2071
:104F8C000191FFF780F8051E05F10C0608D00123EE
:104F9C00C5E90133074B01992B603046FFF7D9FF68
:104FAC002046C4E90565FFF7E0FE02B070BD00BF06
:104FBC00A4580D0088580D0010B54FF0FF31044671
:104FCC00FFF7D2FF204610BD10B50446006800283C
:104FDC0001DBFFF7B5F9204610BD0C30FFF7F4BF2D
:104FEC0070B586B0064601AD6846FFF7CFFB0FCD16
:104FFC00341D0FC42B682370304606B070BD000002
:10500C002DE9F0439846036893B00D460024DB6A03
:10501C0006461746984728466B462246214600947A
:10502C00FFF77EF90546002863D1009B002B4BD07F
:10503C005B69002B48D006A8FFF764FB009B5C69FA
:10504C006378022B04D1211D06A8FFF7C9FF26E0C7
:10505C000A2B24D11122294601A800F063FBA36876
:10506C00002B38D004F108030DF1040C1834186827
:10507C005968624603C20833A3429446F7D106230B
:10508C0001A90CA88DF81430FFF74AFB0DF1340C74
:10509C00BCE80F0007AC0FC4DCF80030237006A886
:1050AC00FFF750FB80B1336807ADD3F82090124B5B
:1050BC000C930FCD0DAC0FC42B6823703A464346AE
:1050CC000CA93046C84705460098FFF721F9284639
:1050DC0013B0BDE8F083E368002BC3D14FF6FF702B
:1050EC00D4F81090FFF704F98145BBD104F11401F9
:1050FC00AAE72546E8E700BF1C580D00024B1A68CA
:10510C00024B1A60704700BF9CE50320A0E6032009
:10511C0070474174704708B5007CFFF769F920EAC5
:10512C00E07008BD08B5007CFFF742F920EAE0709A
:10513C0008BD08B5007CFFF74BF940EAE07008BDEC
:10514C0008B5007CFFF73CF940EAE07008BD007C34
:10515C00FFF746B937B5457C04462DB1207C03B02A
:10516C00BDE83040FFF71CB9007C0191FFF740F916
:10517C0000280199F2DC284603B030BD10B514218B
:10518C00044600F09EF9204610BD000010B54FF00B
:10519C00000C0446084611464FF47A72C4E901C269
:1051AC00044A22600122207462741A46FFF7F0F858
:1051BC00204610BD0C590D0013B50E4C2178BFF3D1
:1051CC005B8F11F0010112D120460191FEF763FFB4
:1051DC00019960B1084A094B0948FFF7D7FF2046EF
:1051EC00FEF75EFF074A0849054800F065F90448D8
:1051FC0002B010BDA4E60320A8E603202CE7032090
:10520C00B0E7032004E603201D510D0041747047E4
:10521C00704708B50021007CFFF70AF940EAE070FE
:10522C0008BD08B50121007CFFF702F940EAE070E7
:10523C0008BD08B5007CFFF7F3F820EAE07008BD64
:10524C0008B5007CFFF7E4F820EAE07008BD13B560
:10525C000446007C0191FFF7E3F80028019901DC7A
:10526C00607C20B1207CFFF7EBF820EAE07002B004
:10527C0010BD007CFFF7ECB810B51421044600F00B
:10528C0020F9204610BD000010B54FF47A73044687
:10529C0008460021C4E90113044B23600123207448
:1052AC0063741146FFF7ACF8204610BD3C590D0055
:1052BC0010B514220446002100F034FA204610BD2B
:1052CC0010B5104C88B003A8FFF7F2FF2178BFF39C
:1052DC005B8F11F0010111D120460191FEF7DBFE2D
:1052EC00019958B103AA0848FFF7CEFF2046FEF7F4
:1052FC00D7FE064A0649044800F0DEF8024808B01A
:10530C0010BD00BFC4E70320C8E7032004E6032058
:10531C001D520D00002240681146FFF7E5B800222F
:10532C0040681146FFF700B9002240681146FFF7AC
:10533C000BB940680022FFF7FFB84068002281F0EB
:10534C000101FFF7E9B8002340681A461946FFF738
:10535C00DBB8002340681A461946FFF7CDB8002287
:10536C0040681146FFF7B0B8406800220221FFF7F1
:10537C00B3B8002340681A46FFF79EB8024B0422CC
:10538C005A60024A1A607047DCE703206C590D0022
:10539C00014B1860704700BFA0E5032070477047B1
:1053AC0008B50B4B43B1FFF78BFF03681B6998479C
:1053BC00002801DDAFF30080064B43B1FFF7FCFE84
:1053CC0003681B699847002801DDAFF3008008BD16
:1053DC00000000000000000008B5FFF7E1FFFEF739
:1053EC006FFF014B186008BDECE703200248034A2D
:1053FC000349121A00F088B900F4032004F40320C6
:10540C00C05A0D0007B5002300931A466FF07701C0
:10541C00FFF740F803B05DF804FB000007B54388C4
:10542C000A2B08D0502B0BD1094B1B684BB103B086
:10543C005DF804EB1847FFF7E5FF03B05DF804FBDC
:10544C00002300931A466FF07701FFF723F8F4E777
:10545C00E8E7032038B5124C1248134D0021FFF732
:10546C00ABF82368AB42114B0CBF012200221A701F
:10547C0002D0FFF7BBFF2560FEF71AFF044600F0D1
:10548C0059F90B4B13B12046AFF3008000210848AB
:10549C00FFF70AF8BDE8384006480021FEF7F0BFD8
:1054AC0000F403209D530D001E1C279AE4E70320F3
:1054BC000000000029540D000B460146184600F070
:1054CC0015B9FEF7E4BD0000014900F0F9B800BFC2
:1054DC00B8590D007FB500241023CDE902340368C0
:1054EC0000949E698DF8044015466B461268B047CF
:1054FC009DF8043003F00603062B03BF009B2B60C2
:10550C000120204604B070BD0098904214BF0120C9
:10551C000620704710B5034B0360044600F0CDF82D
:10552C00204610BDF8590D0010B50446FFF7F2FFE8
:10553C0020460821FFF7C5FF204610BD2DE9F0419C
:10554C001F46DDE90834DDF81880984506461546F7
:10555C0007D1079900F0B4F818B165710020BDE8C7
:10556C00F0813946304600F0ABF80028F6D0012324
:10557C00C4F800802571A371F0E738B515461C46B8
:10558C0000F09EF820B10823E36006232560237108
:10559C0038BD73B505460C4601921E4600F090F8D6
:1055AC0050B9032E08D82368019A5B692946204616
:1055BC0002B0BDE87040184702B070BD10B5034B87
:1055CC0003600446FFF7A6FF204610BD585A0D0095
:1055DC0010B50446FFF7F2FF20460C21FFF771FFD0
:1055EC00204610BDF7B5089F974205460E46144657
:1055FC000AD0A86802680897156A31462246AC465C
:10560C0003B0BDE8F04060471946019300F058F82C
:10561C00019B0028EDD0062003B0F0BD2DE9F14F21
:10562C000D461946DDE90A4BDDE90CA68146174605
:10563C00984600F045F890B1002D3460377109DBC5
:10564C0061198A450CBF06210121B171002001B0FE
:10565C00BDE8F08F0235F9D10123B371F6E754455B
:10566C0006D15946484600F02BF808B17771EDE7A2
:10567C00D9F808000368CDE90CA6CDE90A4BDC6922
:10568C003A4643462946A44601B0BDE8F04F604770
:10569C002DE9F04107460C4615461E46FFF76DFFF7
:1056AC0048B9B86803689F692A4633462146BC4608
:1056BC00BDE8F0416047BDE8F081704700207047BD
:1056CC00814208B50ED0406803782A2B0CD049686B
:1056DC000B782A2B08BF013100F050F8B0FA80F09B
:1056EC00400908BD0120FCE70020FAE710B5054C85
:1056FC0013462CB10A4601460220AFF3008010BDC0
:10570C002046FCE7000000000A44914200F1FF3300
:10571C0000D1704710B511F8014B03F8014F9142BD
:10572C00F9D110BD02440346934200D1704703F8EF
:10573C00011BF9E738B50D4B1D68AB6B04467BB903
:10574C001820FEF719FF0A4A0A4BA863C0E9002388
:10575C00094B83600B23838101220023C0E90423BE
:10576C00AB6B00221C615A6138BD00BFA0E5032061
:10577C000E33CDAB34126DE6ECDE050010F8012BC8
:10578C0011F8013B012A28BF9A42F7D0D01A704772
:10579C00034613F8012B002AFBD1181A0138704765
:1057AC001D400D0059400D0081400D0085400D003D
:1057BC00000000006C61622E74686577636C2E6368
:1057CC006F6D0000000000000000000000000000F1
:1057DC00000000007F460D0075460D006B460D0065
:1057EC0061460D0055460D0049460D0005480D005B
:1057FC000D480D003D460D0035460D002B460D00A5
:10580C0021460D003D480D00000000000000000086
:10581C00AD460D009D460D009F460D006170700059
:10582C000000000000000000C5470D00CF470D0030
:10583C00D9470D00E3470D00ED470D00F9470D006A
:10584C0005480D000D480D0015480D0021480D00B0
:10585C0029480D0033480D003D480D0077697269E9
:10586C006E670072656376206572726F72203D20E0
:10587C00256400000000000000000000AB4B0D0090
:10588C00CD4B0D00E74F0D00DB4B0D00AD4B0D006C
:10589C000000000000000000594C0D008D4C0D0064
:1058AC00294B0D00434B0D007D4E0D00EF4C0D00B0
:1058BC00C14C0D006D4B0D00874D0D000D500D00B2
:1058CC00234D0D00314F0D006F4B0D00A14B0D0002
:1058DC00554B0D00DF4B0D00A14C0D0025592D250E
:1058EC006D2D25645425483A254D3A2553257A00CB
:1058FC0061736374696D65000000000000000000B6
:10590C001D510D0089510D0061510D0031490D00E3
:10591C0031510D004D510D003F510D005B510D00EB
:10592C001F510D0023510D0000000000000000006D
:10593C001D520D0085520D005B520D0031490D00BA
:10594C004D520D001F520D002F520D007F520D00B5
:10595C003F520D0019520D00000000000000000025
:10596C007F530D0075530D006B530D0021530D002B
:10597C005F530D0053530D0005480D000D480D00ED
:10598C0047530D003F530D0035530D002B530D00A5
:10599C003D480D00537431395F53705F6D616B6519
:1059AC005F7368617265645F74616700F8590D001C
:1059BC00A0590D00585A0D00CC590D007C5A0D0001
:1059CC004E31305F5F637878616269763131375F71
:1059DC005F636C6173735F747970655F696E666F1A
:1059EC004500000000000000C0590D0021550D00BD
:1059FC0035550D00C9560D00C9560D009F550D00AB
:105A0C00E1540D0087550D0049550D0015550D003D
:105A1C00585A0D00285A0D00C0590D004E31305FF8
:105A2C005F637878616269763132305F5F73695F8A
:105A3C00636C6173735F747970655F696E666F45D3
:105A4C0000000000000000001C5A0D00C9550D009C
:105A5C00DD550D00C9560D00C9560D009F550D00A2
:105A6C00E1540D009D560D0029560D00F1550D0009
:105A7C00F8590D00845A0D00537439747970655FB0
:105A8C00696E666F00000000B5400D00F9450D0011
:105A9C0089460D00B5470D001D490D00D1490D007B
:105AAC00ED4A0D0009510D0089530D000000000056
:045ABC0000000000E6
:045AC00000000000E2
:105AC400FC580D00A4E503200000000000000000C5
:105AD40000000000000000000000000000000000C2
:105AE40000000000000000000000000000000000B2
:105AF40000000000000000000000000000000000A2
:105B04000000000000000000000000000000000091
:105B14000000000000000000000000000000000081
:085B2400000000000000000079
:105B2C00FFFFFFFF00000102030405060708090A36
:105B3C000B0C0D0E0F101112131415161718191A31
:085B4C001B1C1D1E1F20280078
:045B54007856341239
:04000003D000401CCD
:00000001FF
