:02000002D0002C
:1040000000400D00049D0D00000006000C0005019D
:084010000401BD0B00000000DB
:0440180004880D000B
:10401C0009480A49884208B505D0094A824202D0AB
:10402C00121A04F005FB0748074A0021121A04F083
:10403C000DFB014808BD00BF9CE40320749C0D00DF
:10404C0004E5032004E50320F0E7032070B5074ED8
:10405C00074C04F091F8A41BA4080025A54200D13C
:10406C0070BD56F8043B98470135F7E7409C0D00AE
:10407C00649C0D0000F0DABC08B500F0CDFDBDE885
:10408C00084004F03BB802F063BF02F061BF02F0DD
:10409C0067BF02F065BF000008B5034A00210C2081
:1040AC0002F0A2FEFEE700BF756A0D000078B0FAC0
:1040BC0080F04009704701230370704737B5044600
:1040CC000846019104F0F8FA6368A268451CE818E8
:1040DC00904208D8206801992A46184404F0A8FA9E
:1040EC0060682844606003B030BD000038B5846956
:1040FC000A4B036005467CB16368013B63605BB9A6
:10410C00236820469B689847A368013BA3601BB9B2
:10411C0023682046DB689847284638BD4C990D002B
:10412C000EB403B503AB002153F8042B019303F039
:10413C00BCF902B05DF804EB03B07047F8B502F1BE
:10414C00080323F0070300AF1446ADEB030D002565
:10415C00684604F06DFA0DF804501E4C03F044FF51
:10416C006A461D49FFF7DCFF204602F023F80121C7
:10417C00204601F06EFE4FF0011363616946256124
:10418C00204603F06AF9204602F080FA4FF47A7068
:10419C0002F016FF03F028FF03F053F99DF80030EE
:1041AC00312B6E4608D10121072004F066F803F08C
:1041BC001BFF0A4903F051F93378302B08D1002149
:1041CC00072004F05AF803F00FFF054903F045F9F6
:1041DC00BD46F8BDC4E5032018880D001B880D00F2
:1041EC001E880D0008B502F047FC034B1860BDE8B3
:1041FC00084002F035BE00BFD4E7032003682BB1A2
:10420C004268934202D2184604F0FCB90020704771
:10421C0038B50568044645B143689D4205D2284629
:10422C0004F04AFA013005442560204638BD0000F0
:10423C0038B504460B46D0E901012568044A091A31
:10424C00284402F09DFE636801300344636038BD6E
:10425C0022880D0038B504460B46D0E901012568CB
:10426C00044A091A284402F08BFE636801300344A7
:10427C00636038BD25880D0010B5144C09682046C4
:10428C0003F08BFA12492268124801F038F81249EF
:10429C00204603F094FA18B10121072003F0EDFF3A
:1042AC000E490A4803F08BFA18B10021072003F0DD
:1042BC00E4FF0B4801F07EFF2168094803F0CDF8BC
:1042CC00BDE81040064802F0E1B900BF34E6032017
:1042DC0029880D0064E5032037880D0039880D000E
:1042EC00C4E5032008B500234377006803F0AAFC5B
:1042FC00BDE8084002F0C3BA2DE9F0438F188FB027
:10430C00B942CDE9051706468946904680F0C28031
:10431C0005A80D88FFF77CFF03689F4240F2BA8026
:10432C0005980378412B49D1013004F06BF905282D
:10433C0037DDFF2447F276239D4200F0D38041D82D
:10434C0047F261239D4200F0A88047F264239D420E
:10435C006BD046F670539D4241D1784D784EDFF8C4
:10436C00F4810598874240F295800378412B4BD11C
:10437C00013004F047F9052839DDFF2405A8FFF7C3
:10438C0047FFDDF814902946484604F08BF90146A6
:10439C0000283DD1204603F05FFF05A8FFF738FF4A
:1043AC00DFE70598013004F02DF90028C1DB0598F2
:1043BC00013004F027F90E30C4B2BBE705A8FFF7B3
:1043CC001DFFF9E747F264739D424FD047F27673B5
:1043DC009D4200F0978047F261739D426FD000239D
:1043EC00CDE9013302220092728B19463AE005980E
:1043FC00013004F007F90028BFDB0598013004F008
:10440C0001F90E30C4B2B9E705A8FFF7F7FEF9E7DA
:10441C003146484604F046F928B14146484604F076
:10442C0041F90028B9D10121B4E70AAB45490793FA
:10443C0007A810230025CDE90853FFF73FFE07A876
:10444C002146FFF7F5FE204603F030FF014607A892
:10445C00FFF700FF089BCDE90155013B0093079B3B
:10446C002A461421304600F017FB13E005A8FFF78D
:10447C00CFFE03689F420DD9A4B20121204603F060
:10448C00EBFE05A8FFF7BAFE011E18BF012120465E
:10449C0003F0F3FE0FB0BDE8F0830AAB079307A857
:1044AC00102329490025CDE90853FFF707FE07A87B
:1044BC002146FFF7BDFE204603F00BFFC6E705A81B
:1044CC00FFF7A6FE03689F42E4D9A4B2012120465F
:1044DC0003F0C2FE05A8FFF791FE0146204603F04B
:1044EC000FFFD7E720468DF8284002F0C9F90346A4
:1044FC000AA823B1154A934201D09847CAE702F0A3
:10450C00BCF9C7E705A8FFF783FE059B8DF81C4097
:10451C00A3EB0901A8EB01012046CDE90A310C916E
:10452C0002F0B8F903460AA907A823B1084A934236
:10453C0001D09847AEE702F0A1F9ABE73B880D003C
:10454C003E880D0046880D0049880D0087680D00D7
:10455C0089680D0042880D002DE9F0418CB004AF44
:10456C00044605220068391D03F0A7F8B8B30528E6
:10457C0004D000202037BD46BDE8F081B7F80520F7
:10458C00130A43EA0223B7F80720A7F8053099B2BB
:10459C00130A43EA02231FFA83F8A7F8073000290D
:1045AC00E7D03B7923BB02F066F90246E060607FFE
:1045BC00B7F80730C0B9B7F80510012914D1092B89
:1045CC000FD0C82B01D0042BD4D101256261204619
:1045DC00657700F00FFBFFF705FE02F050F90120A4
:1045EC00C8E703236377C5E7581F18BF0120C1E74D
:1045FC00B8F5806F03D92046FFF774FEEFE708F19A
:10460C00080323F007036E46ADEB030D04AD2068E1
:10461C004246294603F051F880454FF000007FD107
:10462C00B7F80730E85402F026F93B79E060142B18
:10463C0000F0A68048D80F2B00F0A28007D8022BE0
:10464C0048D0062B51D02046FFF74CFE58E0112BDA
:10465C00F9D100233B70B7F807302B449D42C7E9D2
:10466C0003534DD207F10C00D5F80080FFF7D0FDB5
:10467C00FB68B7F807105D1B4D1BC7E905357B6858
:10468C00FD61C3F30F236383644B984500F0BF8037
:10469C0000F28C80A3F57F236FF4007213449845CD
:1046AC0000F09D8079D8A3F50033063B984500F0C7
:1046BC009C8003F50033033398456BD107F114014B
:1046CC00384602F0DBF865E0292B1BD0372B17D0CE
:1046DC001D2BB8D1637F43B901236377204600F0CB
:1046EC0089FAFFF77FFD02F0CAF80023C821B7F85A
:1046FC0005200091CDE901331946204600F0CCF994
:10470C0001200DE0A3681BB9402002F021FCA06041
:10471C00B7F80780A8444545C7E9055802D30020DF
:10472C00B54627E729464022A06803F0CDFFA368D1
:10473C00002583F83F5007F11400FFF769FD03686B
:10474C0043451BD2786920B1BB69984214D203F05F
:10475C005DFF85B2206803F075FA2368A2685A637E
:10476C001D870023637702F086F8A0F59C5008386B
:10477C00C4E903006061C3E72846EAE75025E9E78E
:10478C007B68B7F80720C3F30F23638329462046C1
:10479C00FFF7B2FD00236383B2E7214B9845F9D1B3
:1047AC0007F11401384602F069F8F3E71D4B984500
:1047BC0021D003F19F6303F5003303F58073984513
:1047CC001FD003F16E4303F5302303F58673984530
:1047DC00E0D107F11401384602F050F8DAE707F19E
:1047EC001401384602F04AF8D4E707F114013846B0
:1047FC0002F044F8CEE707F11401384602F03EF817
:10480C00C8E707F11401384602F038F8C2E707F19F
:10481C001401384602F032F8BCE700BF766673002C
:10482C006462670061636F6E2DE9F04104468CB0E1
:10483C000D46FFF7D7FC637F022B00F0A880237F87
:10484C00628B0133DBB223770AB1012516E0022B10
:10485C00FBD8206803F015F8B8B125B9206803F02F
:10486C0097F9002811DD2046FFF776FE0546002853
:10487C00F4D1206803F0E6F902F001F8237F013B44
:10488C00237728460CB0BDE8F08101F0F4FF064612
:10489C00206802F0F6FF677F012F054629D120B969
:1048AC0066612046FFF71EFDE8E7E3684FF21862E9
:1048BC00F31A934204D92046FFF714FD0025DDE7D7
:1048CC004AF6C872934203D82369F31A9342BCD9AF
:1048DC00636941F27072F31A9342B6D90023CDE9A1
:1048EC00013300931A460621204600F0D5F8666184
:1048FC00ABE7002FA9D16269B21A40B141F27073D3
:10490C009A42A2D9206803F09DF96777D6E741F265
:10491C0088339A4299D9206803F094F9D4F800C0EE
:10492C00DCF834E0BCF83880BEF1000F0BD02B461D
:10493C0042467146604603F0F3F9431E5D425D4109
:10494C008DB966619AE7134B06930CF120070FCFD4
:10495C0007AD0FC53B682B704246734606A96046EF
:10496C0003F09BF8E9E76368059301261846268354
:10497C0003F0A2FE0022CDE90122059B00903246F5
:10498C001D21204600F088F82369636176E7002535
:10499C0077E700BFBC980D002DE9F04115468CB0AF
:1049AC000446043540F6B8300F46984601F061FFD6
:1049BC000FCD01AE0FC62B683370676001F05BFF43
:1049CC00A0F59C50083801AFC4E9030060610FCF1B
:1049DC0007AE0FC63B68337007AF0FCF25684FF09B
:1049EC00000CC5F834C0A5F8388020350FC53368E5
:1049FC002B70664644F24F67206803F023F9667704
:104A0C0001F039FF0546637F012B0CD001F033FF19
:104A1C00401BB84204D800212046FFF705FFF2E7FF
:104A2C00637F012BE8D10CB0BDE8F08110B5174CB9
:104A3C0088B0204601F080FF204601F0BBFB2046E9
:104A4C0001F024FE0121204601F003FA00224FF070
:104A5C000113C4E9042303F0C7FA4FF4165103F011
:104A6C00B7FA0121072003F0F7FBA2230093AC2235
:104A7C00EA23A72102A802F0DDFB0549054842F212
:104A8C00823302AAFFF788FF08B010BDC4E50320EB
:104A9C004C880D0008E503202DE9F04F83B000AFE2
:104AAC00044600683D6B884616469946EB4602F074
:104ABC00E8FE00287FD0B8F11D0F04D84C4B23FA28
:104ACC0008F3DB0702D4637F012B74D146B9668BE4
:104ADC0036B9238B01339BB2002B71D02383268BE9
:104AEC00A8F10C03082B16D8D4E90323934238BF42
:104AFC00134603F1420A01F0BEFEAAEB00000028A7
:104B0C0060DB00212046FFF78FFE01F0B4FEAAEB1C
:104B1C0000000028F5DAB9F1000F5AD06B1D7A6B42
:104B2C00002ABA6B08BF002203EB020A0AF1070342
:104B3C0023F00703ADEB030DBB6BC7F804D0EA18E9
:104B4C00C2F3072376BA43EA02238DF80080ADF84E
:104B5C000160ADF80330B9F1000F3CD0002D3AD014
:104B6C002A4649460DF1050003F062FD681D7B6B7A
:104B7C003BB1BB6B2BB11A467B68796B184403F0C5
:104B8C0057FD002555452AD2AAEB05027B68206803
:104B9C00B2F5806F28BF4FF48062591902F05BFEAA
:104BAC000646002001F065FEBEB9206803F04AF805
:104BBC00667701F064FE0C37DD46BD46BDE8F08F2C
:104BCC0001238BE7217F0029A5D12046FFF72CFE7E
:104BDC00A1E70523A3E70520C9E73544D2E703D0B5
:104BEC002046FFF77FFBE6E701F045FE2061E2E798
:104BFC004500002000B595B004AB00220193492379
:104C0C0000930292034B1121FFF746FF15B05DF89C
:104C1C0004FB00BFB8880D001FB500211C48FFF72E
:104C2C0003FE1C4801F0B1FE1B4800F0ECF900B388
:104C3C00194800F0C0FB174801F0C0FE20B1174A1C
:104C4C001749154800F05BFB124801F0C1FE20B17A
:104C5C00144A1349104800F052FB0E4801F0C2FEF2
:104C6C0020B1114A0E490C4800F049FB05B05DF823
:104C7C0004FB684602F0FCF80099074800F0B4FA0F
:104C8C00684602F02BFD0949034800F0DCFCD2E732
:104C9C0008E50320C4E5032064E5032077880D00B4
:104CAC0029880D0085880D0093880D006D880D00F6
:104CBC0073B5214D214E2846002403F00DF805F163
:104CCC001C0002F073FA32466C632C871C49284690
:104CDC0003F07CFB1B4BC3E900541B4D9C61C3E9E7
:104CEC000244C3E904449C832146012002F09CF851
:104CFC000721284601F0F2FD2846144D144932468E
:104D0C0003F064FB134B00941349144C40F25B7298
:104D1C00284600F06FF832461149284603F056FB3E
:104D2C001049204602F025FD0F493246204602B0BC
:104D3C00BDE8704003F04ABB28E5032004E50320DE
:104D4C00F9400D0008E50320C4E5032064E50320C9
:104D5C00B5680D0049410D00A1880D0034E6032013
:104D6C0059560D00748E0D00E9760D0091F85C30EB
:104D7C0010B50446016013B1886D01F04DFE20465C
:104D8C0010BD10B5036893F85C20044612B1986D01
:104D9C0001F04AFE204610BDF8B51F469DF82430A0
:104DAC0004460D4616462BB1012380F85C30583072
:104DBC0001F022FE089B23630023636306B1A66403
:104DCC0025B1294604F1380002F0E7FC069B236567
:104DDC00079BE069A4F84C70FF2BB8BFFF23A4F825
:104DEC00543008B1FFF755F9B4F85400FFF74DF9FA
:104DFC00E061F8BD2DE9FF410446002517469846B1
:104E0C000E4602F069FF0D49E56104F1380002F02D
:104E1C00B0FC9DF82830A564CDE90283FF220F2356
:104E2C00CDE90032204684F85C503B462A46314698
:104E3C00FFF7B2FF204604B0BDE8F081748E0D0080
:104E4C0010B50446204602F0A3FE0028FAD02046F6
:104E5C0002F0D7FDC0B210BD2DE9F0470546C4697C
:104E6C000F46FFF7EDFF2070EB6993F800A04FF0B1
:104E7C0001090AF0F00A4FF000084C462846FFF7EB
:104E8C00DFFF2646EB69985500F07F0313FB09F30F
:104E9C00984401340306A4B21FFA88F84FEAC919E2
:104EAC00ECD4631EBAF1300F3B7024D12846EF6965
:104EBC00FFF7C6FF38552846EF69F41CFFF7C0FF13
:104ECC000236B6B2A4B2B8550226B6B2B1462746DF
:104EDC00C14512D22846FFF7B3FFB5F85430BB4298
:104EEC0088BFEB6909F1010988BFD8550137BFB2FA
:104EFC001FFA89F9ECE70026E7E7A8EB0600B045B6
:104F0C002CBF064600263444B5F85400A4B2A04287
:104F1C002CBF20460020BDE8F087F7B58C461E4616
:104F2C001D4607460023AE4602A805F07F01BEF1E0
:104F3C007F0F03F10104034488BF41F08001BEF1EF
:104F4C007F0F4FEAD515E4B203F8041C10D8C4F156
:104F5C000403D11802F803C0C4F10503134401A8DB
:104F6C000532934206D010F8015B03F8015BF8E7B9
:104F7C002346D8E7721C2244384602F06CFC0546E6
:104F8C0001F07AFD621C78623244A8B2131A5842BE
:104F9C00584103B0F0BD13B50446014601A8FFF714
:104FAC00E5FEE369E0221A70E36900225A70E169B8
:104FBC000222204602F04FFC204602F043FE01F094
:104FCC005BFDC4E9090001A8FFF7DBFE02B010BDD0
:104FDC000233F0B5044698B20023CD5C55B1B4F859
:104FEC005460864203F1010704D9461C15543B4614
:104FFC00B0B2F2E799B2441A2244091202F8021C28
:10500C0002F8013CF0BD38B5044602F03AFC002829
:10501C0014BF0125002502D1204602F013FE2846BC
:10502C0038BD00002DE9F04788B00446DDF840801B
:10503C009DF850A0894617461E46FFF7E4FF05462B
:10504C00002840F0CB80214601A8FFF78FFEA16C11
:10505C00002940F08780B4F84C20A16B2B462046E9
:10506C0002F05EFE002879D0012323849DF8543091
:10507C00E269042B40F08180594B186899889B7920
:10508C00ADF80C108DF80E300290C2F805009DF8AA
:10509C000E30BDF80C10A2F80910D3720C23B8F125
:1050AC00000F7FD09DF848009DF84420400140EA55
:1050BC00C20040F00600C0B2BAF1000F01D100F0FE
:1050CC00FD001FB1002E6FD140F08000E269D0547A
:1050DC00226DE169581C12120A549A1CE169206D68
:1050EC0088540333E26949462046FFF771FF0346B3
:1050FC00B8F1000F0BD0E26941462046FFF768FF7C
:10510C00E269139903462046FFF762FF034667B135
:10511C00E26939462046FFF75BFF03462EB1E26990
:10512C0031462046FFF754FF0346053BE2699BB22C
:10513C0010212046FFF7F1FE01F09EFCC4E90900A6
:10514C004FF47A76204602F023FD80BB01F094FCEC
:10515C00A36AC01A236D73439842F3D9204602F018
:10516C0071FD34E002A802F071F8B4F84C202B4623
:10517C0002A9204602F091FC74E71A4B1868596892
:10518C001B7A0DF1080CACE803008CF8003002AB74
:10519C0003CBC2F80500C2F809109CF80030537319
:1051AC000E237CE7022087E740F0C0008EE702A9BF
:1051BC002046FFF751FE0428D0D1E369DE78002E9B
:1051CC00CCD101F059FC0125A06284F82C6001A817
:1051DC00FFF7D7FD284608B0BDE8F0870025F9E7B2
:1051EC0003890D000A890D007FB501230422CDE946
:1051FC0004320023CDE90233CDE900331A46FFF720
:10520C0011FF07B05DF804FB2DE9F74FDDF83C808A
:10521C009DF834509DF8389004468B4616461F4630
:10522C00FFF7F1FE8246002851D0214601A8FFF776
:10523C009DFDB4F85420E069002103F007FA052322
:10524C00E26959462046FFF7C3FE6B1E012B15D8A9
:10525C00218CE369013189B2218409121954421C51
:10526C00E369218C92B20230995480B2B8F1000FEC
:10527C0004D0238C5A1C2284A8F8003000210B186F
:10528C008F42E2699BB20AD9B4F854C09C4506D946
:10529C0016F801C002F803C0013189B2EFE79DF89E
:1052AC00301000290CBF30213121B9F1000F01D091
:1052BC0041F00801022D0ED141F00401053B9BB2D7
:1052CC002046FFF72AFE824601A8FFF75AFD5046FA
:1052DC0003B0BDE8F08F012D08BF41F00201EDE7EE
:1052EC001FB5089C0394002402949DF81C40019463
:1052FC009DF818400094FFF787FF04B010BD30B53F
:10530C0087B0044610460591049203F0D5F90025A8
:10531C000346CDE90155DDE9042100952046FFF750
:10532C00DFFF07B030BD73B504460E46FFF76BFECA
:10533C000546C8B1214601A8FFF718FDE3696222B2
:10534C001A70E36902225A70E36932129A70E369A7
:10535C00DE70E1690422204602F07DFA051E01A8E8
:10536C0018BF0125FFF70DFD284602B070BD73B5BF
:10537C0004460E46FFF747FE0546C8B1214601A874
:10538C00FFF7F4FCE36972221A70E36902225A7087
:10539C00E36932129A70E369DE70E16904222046F7
:1053AC0002F059FA051E01A818BF0125FFF7E9FC08
:1053BC00284602B070BD2DE9F04F2DED028B87B061
:1053CC0000AF0446FFF71FFE8146F8B1214607F1F6
:1053DC001400FFF7CBFC01F04FFB226D4FF47A73F6
:1053EC005343A26A821A9A42064603D8626A821A08
:1053FC00934221D294F82C307BB1204602F022FC4F
:10540C004FF0000907F11400FFF7BBFC48461C37AE
:10541C00BD46BDEC028BBDE8F08FE269C021117076
:10542C00E2695370E1690222204602F014FAC4E9E1
:10543C000966012384F82C30204602F0A9FB0028D1
:10544C00E0D007F113012046FFF706FD8346002844
:10545C00D8D0E369A662197801F0F002302A7FD126
:10546C00D4F830A0BAF1000FCCD097F813C06A462C
:10547C0008EE102A03EB0C025578917801EB05210C
:10548C008DB205F108026946D208A1EBC20295461D
:10549C000CF10302FA6003EB020E0DEB05026846F9
:1054AC00C7F808D07A60D7E901218A4206D00A46AB
:1054BC001EF8018B02F8018BBA60F4E7002242550A
:1054CC0093F80080F96808F00608ABEB0C02033A7D
:1054DC00B8F1020FA2EB0502294425D113F801E023
:1054EC001944023A91F801B00CF105012944194410
:1054FC000BEB0E2BD047E36940221A70E3691FFABD
:10550C008BFB83F80180E3694FEA2B229A70E369E5
:10551C0083F803B0E1690422204602F09CF966622C
:10552C0018EE103A9D466DE7B8F1040F15D113F83B
:10553C0001E01944023A91F801B00CF1050129443B
:10554C0019440BEB0E2BD047E36950221A70E36918
:10555C0002221FFA8BFB5A70D5E71944D047DFE7BC
:10556C00502A08D19A78D97801EB022189B22046C9
:10557C00FFF7D9FE46E7402A12D1626B002A3FF4AE
:10558C0041AFBBF1040F7FF43DAF11F0060F7FF478
:10559C0039AF9978D87800EB012080B2904731E789
:1055AC00602A08D19A78D97801EB022189B2204679
:1055BC00FFF7DDFE26E7702ADFD0902A3FF422AFFA
:1055CC00C02A0AD1D0221A70E36900225A70E1690C
:1055DC000222204602F03FF914E7D02A04BF002330
:1055EC0084F82C300EE7F7B504460F461646FFF745
:1055FC000AFD054610B3214601A8FFF7B7FB238C23
:10560C0001339BB2EBB12384238CE2691B125371DF
:10561C00E369228C9A71E269072339462046FFF729
:10562C00D7FCE3691E54043883B2E2698221204618
:10563C00FFF773FC054601A8FFF7A3FB284603B050
:10564C00F0BD0123DFE70022FFF7CDBF38B50546DB
:10565C00FFF7D9FC10B12846FFF79DFCE86908B1AB
:10566C00FEF717FD05F1380002F038F8AC690A4B6B
:10567C002B607CB16368013B63605BB92368204697
:10568C009B689847A368013BA3601BB9236820461D
:10569C00DB689847284638BD4C990D002DE9F04F32
:1056AC0085B01F46BDF93880BDF83C30A8EB020927
:1056BC00A7EB010AB9F1000FB8BFC9F10009BAF1A3
:1056CC00000FB8BFCAF1000AD14583460C461546F7
:1056DC0004DD3A462C4647460D469046BC4205DD55
:1056EC002A464546904622463C4617463E1BB2B2D9
:1056FC000092A8EB0502002AB8BF52420192C6F3F1
:10570C00C03202FA86F64545B4BF01224FF0FF3293
:10571C0076100292BC421CDCDBF800200393D145CE
:10572C00D2F81880C7BF294622462A462146584639
:10573C00C047019A039BB61AB1B236B2002E05DAF5
:10574C00029A1544009A56182DB236B2013424B27E
:10575C00E0E705B0BDE8F08F704710B40468246929
:10576C00A4465DF8044B604730B40468BDF808509B
:10577C000295A46BA44630BC604730B40468BDF8F5
:10578C0008500295E46BA44630BC604770B4BDF978
:10579C000C50BDF810600468CDE90356246CA44687
:1057AC0070BC60472DE9F3411C460368BDF82080AE
:1057BC005B6905461646013C34440F4624B29847B3
:1057CC002B68CDF8048000949C6A28463B463246F0
:1057DC003946A0472B68DB6A284602B0BDE8F04189
:1057EC0018472DE9F3411D460368BDF820805B691D
:1057FC00044617460E469847CDE9007822686B1E82
:10580C003344956A20461BB23A463146A847236872
:10581C00DB6A204602B0BDE8F04118472DE9F3479A
:10582C001E460368BDF928905B69BDF82C800C46B8
:10583C000546174698472644B4422B680BDACDF838
:10584C000080D3F820A021464B463A462846013426
:10585C00D04724B2F0E7DB6A284602B0BDE8F04737
:10586C00184713B502680191B0F90E100091146C31
:10587C00B0F90C3000221146A04702B010BD2DE942
:10588C00F3471D460368BDF82C805B69BDF9289071
:10589C0004460F46164698472368CDF80080D3F887
:1058AC0024A032462B4639462046D0472368CDF8F3
:1058BC00008009F1FF323244D3F824A039462B463C
:1058CC00204612B2D0472368CDF80080D3F820A030
:1058DC0032464B4639462046D0476B1ED9192368B1
:1058EC00CDF800801D6A20464B46324609B2A847C7
:1058FC002368DB6A204602B0BDE8F04718477047C2
:10590C002DE9F74399421646BDF92870BDF82C9045
:10591C00026880460D461C4613D1BE42C8BF3346B2
:10592C00CDF82890C4BF3E461F467B1C946B9B1B36
:10593C001BB2324629464046A44603B0BDE8F043AC
:10594C006047BE420AD19942C2BF0B4625461C464F
:10595C00631CCDF82890D46B5B1BE9E7536998471F
:10596C00CDE90079D8F8003040469F6A324623468C
:10597C002946B847D8F80030DB6A404603B0BDE88A
:10598C00F043184701F00303B0F90A208376C907E6
:10599C00B0F9083059BF8381C2818281C3817047BD
:1059AC0030B54281C281074A074D018100248181B3
:1059BC004FF0FF31C0E905124460056004610477C3
:1059CC00046230BD010100011C8E0D002DE9F04F69
:1059DC0089B0CDE902120268BDF948800493BDF983
:1059EC004C3052690593BDF850A00446904718F10D
:1059FC0007024FF0000648BF08F10E024FEAE20B17
:105A0C0001963546039B019ABDF904109A18059B23
:105A1C008B4212B227DD049B33444FF000090693EE
:105A2C000FFA89F080451FFA89F117DD4F0705BF82
:105A3C00069BC0106D001D5C18BFEDB22B060AD57D
:105A4C00029B206807921944836909B21F462046BD
:105A5C005346B847079A09F10109E1E7019B013365
:105A6C0001935E44CEE72368DB6A204609B0BDE8AB
:105A7C00F04F18472DE9F04F2DED028B91B01646E3
:105A8C00026ABDF874809DF878509DF87C400391B3
:105A9C001F46BDF8703004938346002A40F0C58041
:105AAC00B0F90C308B4240F34C81B0F90E30B3425C
:105ABC0040F34781062313FB0513002B40F3418170
:105ACC0006EBC403002B40F33C81037F1BB9AF2FC3
:105ADC0084BF0137FFB2DBF8003058465B6998474A
:105AEC000522099200220592984A07EB8703D318E6
:105AFC000C93B3B20693059A0C9B9B5C0793ABB2C9
:105B0C000B93BDF80C300893039B02FB05F919FAB3
:105B1C0083F90FFA89F308EE103A08230A93039BD2
:105B2C0002EB030A4FF000090FFA8AFA079ADBF826
:105B3C000030D20752D5012D1FFA89F23ED1012C2B
:105B4C003CD19B6906991F46049B0A4412B25146EC
:105B5C005846B84709F101034FFA83F9079B5B08D4
:105B6C0007930A9B013B13F0FF030A93DED1059FB9
:105B7C0001377BB20593099B013B13F0FF0309939B
:105B8C00B9D1049B43450FD0012DDBF800303BD13C
:105B9C00012C39D10899CDF8008005311C6A3246A8
:105BAC00082309B25846A047DBF80030DB6A584698
:105BBC0011B0BDEC028BBDE8F04F1847069914FBF1
:105BCC0002F20A44049901910094DB6918EE101A50
:105BDC001F4612B22B465846B847BBE7049A4245BB
:105BEC00B8D0012D1FFA89F207D1012C05D19B6980
:105BFC0006991F460A444346A8E70699CDF8048047
:105C0C0014FB02F20A44DFE70B9ACDF8048002EB96
:105C1C008201089AE4000A4411460094DC69324679
:105C2C002B4609B25846A047BEE7137A5168126852
:105C3C000D92FF1AFFB201EBC70331F83720069221
:105C4C009A780992DA780B92012D93F9052093F941
:105C5C0006A00A9201D8012C57D9BDF92830089317
:105C6C000FFA8AF30793DBF8003058465B699847C4
:105C7C00B3B24FF000080E931AFA86F3C1464746AA
:105C8C000F930B9B9F428FD2079B0E9A3B4403FBB7
:105C9C000423002205920F9A1BB202EB070A08EEAE
:105CAC00103A0FFA8AFA4346099A0599914241D261
:105CBC005A1CD2B25B070C9207D1069B06990D9A1F
:105CCC0001339BB212F80190069319F0800F12D099
:105CDC00012DDBF80030BDF80C101AD1012C18D1B5
:105CEC000A9A9B691144059A11441E465246049B1C
:105CFC0009B25846B047059E0136F3B24FEA49093E
:105D0C0005935FFA89F90C9BCEE70023CDE90733A5
:105D1C00A9E70598089A024402FB0511049ACDE9FB
:105D2C000042DB6918EE102A1E4609B22B46584673
:105D3C00B047E0E7099B013798445FFA88F8FFB257
:105D4C009FE711B0BDEC028BBDE8F08F13890D00FD
:105D5C00F0B5026A85B004460B46002A34D10A29F4
:105D6C0008D1438A0282427E03EBC2036382012084
:105D7C0005B0F0BD0D29FAD0E17E007E657E71B1D3
:105D8C00B4F91060062111FB0061B4F90C60B1424A
:105D9C00C1BFB4F91210228201EBC5026282E28A01
:105DAC000192A28A0092CDE90205B4F91220B4F94D
:105DBC0010102046FFF75EFE237E228A03EB43037E
:105DCC0002EB43032382D2E70A2907D10023038283
:105DDC00937A417E428A01FB0323C7E70D29C6D083
:105DEC00157AA942C3D3517A9942C0D351685D1B2D
:105DFC00EDB201EBC505AF782FB3E97819B3E17EAD
:105E0C00007E667E91B195F905103944B4F9107095
:105E1C0000FB0171B4F90C70B94207DD0027278231
:105E2C00B4F91210927A02FB06126282E28A019293
:105E3C00A28A0092CDE90206B4F91220B4F910102E
:105E4C002046FFF717FE2979237E228A01FB0323C4
:105E5C00B8E7012938BF01210176417670477047B8
:105E6C0010B51021044602F0B6FA204610BD000011
:105E7C0073B5044608462279A36832B1A3B90B491D
:105E8C0002B0BDE8704001F0D5BA094A267B094D35
:105E9C000949647B012E18BF2946CDE90014074936
:105EAC00FEF73EF902B070BD054AEFE77D8E0D009E
:105EBC00748E0D00798E0D00758E0D00938E0D0075
:105ECC006C8E0D0010B5044B03600446C06A08B11B
:105EDC0001F046F8204610BD6C930D0010B5044639
:105EEC00FFF7F0FF2046502102F075FA204610BD56
:105EFC00002910B54BDBB0F90C408C4247DD002A71
:105F0C0045DBB0F90E40944241DD847E022C1FD05B
:105F1C00032C26D0012C04D10489D24314440A4604
:105F2C0021B2012B23D0022B32D083BB002A134683
:105F3C000489C06AB8BFD31DDB1013FB041102F037
:105F4C00070201239340425C22EA030242541EE002
:105F5C000489C94321444489D243224409B212B270
:105F6C00DFE74489C9430C44114622B2D9E7002A21
:105F7C0004891346B8BFD31DDB1013FB0411C36A8D
:105F8C0002F0070001228240585C02435A5410BDB3
:105F9C00002A13460489C06AB8BFD31DDB1013FB5B
:105FAC00041102F00702012303FA02F2435C5A4087
:105FBC00CCE710B5044690F93600012180B202F00E
:105FCC005CF9606A18B1BDE8104001F0D4BA10BD9C
:105FDC0070B504461D460026FFF7E2FC114B23600A
:105FEC00666215B902F0CAF90546FF2384F833300E
:105FFC0084F836309DF9103084F837300A4BA3639F
:10600C00012384F83C30059BA3644FF6FF72069B7A
:10601C00A286C4E90A562664A4F84460E3642046C8
:10602C0070BD00BF6C930D00B88E0D00F8B5044622
:10603C00806A0D4690B194F9301001F073F8A06AA3
:10604C00036800219B689847A06A036829469B68EF
:10605C009847A06ABDE8F84001F06BB894F9353068
:10606C00014698B202F009F9606A20B12946BDE8F0
:10607C00F84001F007BB0826802794F9330005EAA5
:10608C00070180B202F0F9F894F93400012180B2D2
:10609C0002F0F3F894F93400002180B202F0EDF82C
:1060AC00013E4FEA5707E8D1F8BD38B50446806A7F
:1060BC000D4680B1A16C01F027F8002D204614BFCD
:1060CC00A721A621FFF7B2FFA06A88B1E16CBDE859
:1060DC00384001F019B8606A18B104F1380101F0C8
:1060EC0063FA94F93600002180B202F0C6F8E4E7B6
:1060FC002046BDE83840FFF75CBF2DE9F843044665
:10610C00806A0D468F1840B394F9301001F00AF8EC
:10611C00A06A036800219B6898470126BD42A06ACB
:10612C0017D01F2E0CD901F004F894F93010A06A86
:10613C0000F0F8FFA06A036800219B6898470126CD
:10614C00A06A15F8011B036801369B689847F6B2E4
:10615C00E4E7BDE8F84300F0ECBF94F935300146B4
:10616C0098B202F08AF8AF4222D0606A15F8019B0F
:10617C0018B1494601F086FAF5E708264FF0800879
:10618C0094F9330009EA080180B202F076F894F928
:10619C003400012180B202F070F894F9340000212F
:1061AC0080B202F06AF8013E4FEA5808E8D1DAE70B
:1061BC00BDE8F883B0F90A30DA1D48BF03F10E02CE
:1061CC00B0F90830C06AD2105A43002102F03EBA2E
:1061DC002DE9FF411E46C36A9DF8288004460F46F0
:1061EC001546B3B12046FFF7E5FFB4F90A00B4F940
:1061FC00081020281FDC20230122CDE90132203891
:10620C0073237339009300EBD070894B01EBD17180
:10621C001FE0B0F90A30D81D48BF03F10E00B4F9E5
:10622C000830C010584300F093FEE0620028D9D12A
:10623C0004B0BDE8F08140234FF0010CCDE9013CE6
:10624C0052234038523900937A4B00EBD07001EB5B
:10625C00D17140F34F0241F34F012046FFF7B6FBDB
:10626C00A06A84F83170002878D0002D74D1B4F96C
:10627C000A30202B0CBF3C253D2584F83050B8F15A
:10628C00000F01D000F044FFFEB194F93700002854
:10629C001BDB012180B201F0DFFF94F937000121F3
:1062AC0080B201F0EAFF012000F08AFE94F9370079
:1062BC00002180B201F0E1FF0A2000F081FE94F988
:1062CC003700012180B201F0D8FFA06A002874D0F9
:1062DC00A16C00F019FF042257492046FFF70DFF6F
:1062EC00A17A0139C9B22046FFF7A0FE5349042216
:1062FC002046FFF702FF94F93130012B0CBF10211F
:10630C0014212046FFF792FE04224D492046FFF748
:10631C00F4FEA3684B4A93425CD14B4904222046BD
:10632C00FFF7EBFED9212046FFF780FE94F93130C0
:10633C00012B0CBF2221F1212046FFF777FE2046CE
:10634C0042490622FFF7D9FEA06A002863D0E16C0F
:10635C0000F0DAFE01206BE76DB28EE794F93500A0
:10636C00012180B201F078FF94F93600012180B24E
:10637C0001F072FF94F93600012180B201F07DFF2B
:10638C00656A3DB1B8F1000F3FF47EAF284601F0CD
:10639C00E1F879E794F93300012180B201F05CFF58
:1063AC0094F93400012180B201F056FF94F93400C5
:1063BC00294680B201F061FF66E7606A18B104F10A
:1063CC00380101F0F1F894F93600002180B201F0A7
:1063DC0054FF80E71E4A93420ED11E4903222046E9
:1063EC00FFF78BFE94F93130012B0CBF9F21CF218D
:1063FC002046FFF71BFE95E7174A934292D11749A7
:10640C0003222046FFF779FE94F93130012B0CBFA3
:10641C001021AF21ECE794F93600012180B201F094
:10642C002CFF606A002895D001F0A5F892E700BF18
:10643C0084910D00C48E0D00CC930D00D0930D00F3
:10644C00D4930D0080002000DE930D00D8930D0036
:10645C0080004000E2930D0060001000E5930D00F9
:10646C0070B5002ABDF810503DDBB0F90A409442DB
:10647C0039DD0029BEBF5B181BB20021B0F9084002
:10648C00CE18A642C4BF631A1BB2002B2BDDC06A08
:10649C00D61014FB0611014402F0070001228240C1
:1064AC00012DD2B216D0022D0BD0E5B9D243D2B207
:1064BC000B44994217D011F8010B104001F8010C54
:1064CC00F7E70B4499420ED011F8010B504001F83C
:1064DC00010CF7E70B44994205D011F8010B10435E
:1064EC0001F8010CF7E770BDF0B50029BDF8146098
:1064FC0076DBB0F90850A94272DA002ABCBFD21878
:10650C0013B2B0F90A40B8BF0022D718A742C4BFD3
:10651C00A31A1BB2002B63DDC2F3C404C76A15FBBC
:10652C00041112F00702DBB207EB010423D0C2F115
:10653C000802D2B22C4D93423CBF4FF0FF0CA2EBA1
:10654C00030EAD5C3CBF4CFA0EFC0CEA0505012EAB
:10655C0007D0022E2ED04EB917F801C02CEA050533
:10656C0003E017F801C045EA0C057D54934237D37C
:10657C00B0F908100C449A1AD2B2072A0ED9022E7E
:10658C001DD113462178C9432170083BB0F908107E
:10659C00DBB2072B0C44F5D802F0070202B3134B05
:1065AC00012E9B5C19D0022E1BD0CEB9227822EA88
:1065BC00030314E017F801C085EA0C05D5E7002E9B
:1065CC0014BFFF25002513462570083BB0F90810B1
:1065DC00DBB2072B0C44F7D8DEE722781343237089
:1065EC00F0BD22785340FAE7BC930D00C4930D0024
:1065FC0070B41446827EBDF80C60022A0DD0032ABA
:10660C0018D0012A11D10289E443144424B2039610
:10661C000A46214670BCFFF767BF42890589E443EF
:10662C0019441444691A24B209B20396224670BC68
:10663C00FFF716BF45891944691A09B2E7E730B468
:10664C001446827EBDF80850022A0DD0032A18D0B9
:10665C00012A11D1E2180489A41A24B202950A461F
:10666C00214630BCFFF7FCBE0289C9431144E21835
:10667C004489A41A09B224B20295224630BCFFF711
:10668C0033BF4289C943114409B2E7E72DE9F84306
:10669C000446806A002842D0A16C00F035FD4749C1
:1066AC0005222046FFF729FD217A01392046C9B27F
:1066BC00FFF7BCFCB4F90A30DE1D48BF03F10E062F
:1066CC00D4E90A052389F61013FB06F615FA86F6AB
:1066DC0000283AD094F9301000F024FDA06A036829
:1066EC0040219B6898470127B542A06A24D01F2FF0
:1066FC000CD900F01EFD94F93010A06A00F012FDC8
:10670C00A06A036840219B6898470127A06A15F886
:10671C00011B036801379B689847FFB2E4E7606A86
:10672C0018B104F1380100F03FFF94F93600002154
:10673C0080B201F0A2FDB2E700F0FBFCA06A78B3D6
:10674C00E16CBDE8F84300F0DFBC94F935000121A1
:10675C0080B201F092FDB542F0D0606A15F8019B51
:10676C0018B1494600F08EFFF5E708274FF0800876
:10677C0094F9330009EA080180B201F07EFD94F926
:10678C003400012180B201F078FD94F9340000212D
:10679C0080B201F072FD013F4FEA5808E8D1DAE708
:1067AC0094F93600012180B201F067FD606A18B1DE
:1067BC00BDE8F84300F0DFBEBDE8F883E8930D00B8
:1067CC0000210A22C0E900127047002310B50446CC
:1067DC00C171837188B201F069FD08B10323A37103
:1067EC0000F04AF9206010BD38B50C46054611463C
:1067FC00A0B201F031FD21462846BDE83840FFF734
:10680C00E4BF38B50446C07901F050FDA5790038D5
:10681C0025F0080318BF0120C5F340058542A3717C
:10682C000AD000F029F9A379206083F00203A37148
:10683C00A079C0F3C00038BD00F01EF92368C01A5F
:10684C00A3889842F4D3A37903F00103AB42EFD0B1
:10685C0000F012F9A379206083F0010343F00803E0
:10686C00E5E7807900F00900A0F10803584258418F
:10687C00704700F0A5BB00F0FFB870477047704739
:10688C0003065ABF024B53F820000020704700BF8C
:10689C00F0930D0003065ABF024B53F82000002062
:1068AC00704700BFF0950D0010B5064B0360044611
:1068BC00006D08B100F0A8F82046FFF703FB204656
:1068CC0010BD00BFF8970D0010B50446FFF7ECFFA4
:1068DC002046702101F07FFD204610BD30B585B0FB
:1068EC0004460D4601F04AFD104A1149CDE901213B
:1068FC004FF0FF3280210346009220462022FFF702
:10690C0067FB0C4B23600023C4E9143504F15800D9
:10691C00FFF756FF04F16000FFF752FF04F1680027
:10692C00FFF74EFF204605B030BD00BF801A0600B1
:10693C00A0860100F8970D0013B50446503000F006
:10694C005BF8636DD90705D50222042104F15800C8
:10695C00FFF74AFF636D9A0705D50022032104F166
:10696C006000FFF741FF636D5B0705D502221146FE
:10697C0004F16800FFF738FF012300933C22022149
:10698C002046FFF725FC02B010BD10B5436DD907AA
:10699C00044602D55830FFF734FF636D9A0703D5D0
:1069AC0004F16000FFF72DFF636D5B0705D504F163
:1069BC006800BDE81040FFF724BF10BD436D0246D0
:1069CC0013F0010003D002F15800FFF74ABF7047E3
:1069DC00436D024613F0020003D002F16000FFF792
:1069EC0040BF7047436D024613F0040003D002F120
:1069FC006800FFF736BF704708B5024B1B681B6B6E
:106A0C00019308BD4802030008B5024B1B685B6B81
:106A1C00019308BD4802030008B5024B1B689B6B31
:106A2C00019308BD4802030008B5024B1B681B6CA0
:106A3C00019308BD4802030008B5024B1B685B6C50
:106A4C00019308BD4802030008B5024B1B689B6C00
:106A5C00019308BD4802030008B5024B1B685B6834
:106A6C00019308BD1802030008B5024B1B68DB68D4
:106A7C00019308BD1802030008B5024B1B685B6943
:106A8C00019308BD1802030008B5024B1B685B6834
:106A9C00019308BD2C02030008B5024B1B689B68D0
:106AAC00019308BD2C02030008B5024B1B68DB6880
:106ABC00019308BD2C02030008B5024B1B681B692F
:106ACC00019308BD2C02030008B5024B1B685B69DF
:106ADC00019308BD2C02030008B5024B1B689B6A8E
:106AEC00019308BD2C02030008B5024B1B681B6BFD
:106AFC00019308BD2C02030008B5024B1B689B6F69
:106B0C00019308BD2C02030008B5024B1B681B68DF
:106B1C00019308BD2802030008B5024B1B68DB6813
:106B2C00019308BD2802030008B5024B1B689B6942
:106B3C00019308BD2802030008B5024B1B68DB69F2
:106B4C00019308BD2802030008B5024B1B681B6AA1
:106B5C00019308BD2802030008B5024B1B685B6A51
:106B6C00019308BD2802030008B5024B1B689B6A01
:106B7C00019308BD2802030008B5024B1B68DB6AB1
:106B8C00019308BD2802030008B5024B1B681B6B60
:106B9C00019308BD2802030008B5024B1B685B6B10
:106BAC00019308BD2802030008B5024B1B681B6C3F
:106BBC00019308BD2802030008B5024B1B685B69F2
:106BCC00019308BD6C02030008B5024B1B685B699E
:106BDC00019308BD6402030008B5024B1B681B6AD5
:106BEC00019308BD6402030008B5024B1B689B6A45
:106BFC00019308BD6402030008B5024B1B689B6837
:106C0C00019308BD6802030008B5024B1B68DB68E2
:106C1C00019308BD6802030008B5024B1B689B6911
:106C2C00019308BD3802030008B5024B1B68DB69F1
:106C3C00019308BD3802030008B5024B1B681B6AA0
:106C4C00019308BD3802030008B5024B1B689B6A10
:106C5C00019308BD3802030008B5024B1B681B6B7F
:106C6C00019308BD3802030008B5024B1B689B6BEF
:106C7C00019308BD3802030008B5024B1B681B6862
:106C8C00019308BD3002030008B5024B1B685B6919
:106C9C00019308BD3002030008B5024B1B68DB6989
:106CAC00019308BD3002030008B5024B1B681B6A38
:106CBC00019308BD3002030008B5024B1B685B6AE8
:106CCC00019308BD3002030008B5024B1B68DB6B57
:106CDC00019308BD3002030008B5024B1B681B6C06
:106CEC00019308BD3002030008B5024B1B685B6CB6
:106CFC00019308BD3002030008B5024B1B681B68EA
:106D0C00019308BD3C02030008B5024B1B68DB680D
:106D1C00019308BD3C02030008B5024B1B681B69BC
:106D2C00019308BD3C02030008B5024B1B685B696C
:106D3C00019308BD3C02030008B5024B1B689B691C
:106D4C00019308BD3C02030008B5024B1B68DB69CC
:106D5C00019308BD3C02030008B5024B1B681B6A7B
:106D6C00019308BD3C02030008B5024B1B689B6AEB
:106D7C00019308BD3C02030008B5024B1B681B685D
:106D8C00019308BD4C02030008B5024B1B685B68FD
:106D9C00019308BD4C02030008B5024B1B681B692C
:106DAC00019308BD4C02030008B5024B1B685B69DC
:106DBC00019308BD4C02030008B5024B1B689B698C
:106DCC00019308BD4C02030008B5024B1B68DB693C
:106DDC00019308BD4C02030008B5024B1B681B6AEB
:106DEC00019308BD4C02030008B5024B1B685B6B9A
:106DFC00019308BD6002030008B5024B1B681B6DB4
:106E0C00019308BD6002030008B5024B1B685B6868
:106E1C00019308BD2002030008B5024B1B685B6997
:106E2C00019308BD2002030008B5024B1B68DB6A06
:106E3C00019308BD2002030008B5034B1B68D3F86F
:106E4C008830019308BD00002002030008B5034BF5
:106E5C001B68D3F89430019308BD00002002030096
:106E6C0008B5024B1B689B68019308BD44020300E4
:106E7C0008B5024B1B68DB69019308BD4402030093
:106E8C0008B5024B1B68DB6B019308BD4402030081
:106E9C0008B5024B1B685B68019308BD40020300F8
:106EAC0008B5024B1B689B68019308BD40020300A8
:106EBC0008B5024B1B68DB68019308BD4002030058
:106ECC0008B5024B1B681B69019308BD4002030007
:106EDC0008B5024B1B685B69019308BD40020300B7
:106EEC0008B5024B1B689B69019308BD4002030067
:106EFC0008B5024B1B68DB69019308BD4002030017
:106F0C0008B5024B1B681B6A019308BD40020300C5
:106F1C0008B5024B1B681B6B019308BD40020300B4
:106F2C0008B5024B1B685B6B019308BD4002030064
:106F3C0008B5024B1B681B6C019308BD4002030093
:106F4C0008B5024B1B685B6C019308BD4002030043
:106F5C0008B5024B1B681B68019308BD1C0203009B
:106F6C0008B5024B1B685B68019308BD1C0203004B
:106F7C0008B5024B1B689B68019308BD1C020300FB
:106F8C0008B5024B1B68DB69019308BD1C020300AA
:106F9C0008B5024B1B685B6A019308BD1C02030019
:106FAC0008B5024B1B68DB6B019308BD1C02030088
:106FBC0008B5024B1B685B6C019308BD1C020300F7
:106FCC000021FFF729BF10B50446006808B1FFF790
:106FDC003BFD204610BD10B58368044613B1032257
:106FEC0001469847204610BD10B5064C002320469C
:106FFC002360FFF721FD2046034A0449BDE81040F9
:10700C0001F0E4B950E6032004E50320D36F0D0032
:10701C00002240681146FFF773BF002240681146FA
:10702C00FFF77EBF40680022FFF772BF4068002266
:10703C0081F00101FFF75CBF002340681A46194636
:10704C00FFF74EBF002340681A461946FFF740BFB2
:10705C00002240681146FFF733BF002240681146FA
:10706C00FFF71EBF406800220221FFF721BF00235B
:10707C0040681A46FFF70CBF024B03225A60024AC3
:10708C001A60704754E6032058980D007047F8B505
:10709C00064615460C468F18BC4206D0336814F8C9
:1070AC00011B9B6830469847F6E72846F8BD007CE4
:1070BC000022FFF749BD007C0021FFF74DBD007C8D
:1070CC000021FFF751BD007C0021FFF755BD007C6E
:1070DC000021FFF759BD10B51421044601F07BF9CE
:1070EC00204610BD10B54FF47A73044608460021B3
:1070FC00C4E90113034B236020741146FFF754FDC0
:10710C00204610BD94980D00007C0022FFF7FCBCBB
:10711C000023007C1A461946FFF7FEBC007C0022B7
:10712C00FFF702BDC9B2FFF7F9BF007C0022FFF7E1
:10713C0003BD0121FFF7F9BF704710B518210446B4
:10714C0001F049F9204610BDF0B5037D062B8DB03A
:10715C000E4600F104074FF0000412D000F10805B0
:10716C0015F8011D0A22304600F081F9AF420444A3
:10717C0019D0002CF4D02E21304600F05FF90444D5
:10718C00EEE72F236A4639460A208DF80040FFF7B8
:10719C001BFD684601F090FA33680246DB686946CD
:1071AC0030469847044620460DB0F0BD10B5054B4F
:1071BC000446112240F8043B002101F047FA204616
:1071CC0010BD00BFBC980D000346074A10B543F82C
:1071DC00042B01F1100251F8044B43F8044B91427B
:1071EC00F9D10A781A7010BDBC980D00037D042BE0
:1071FC0004D14068003818BF01207047062B07D116
:10720C0043683BB983682BB9C3681BB90069F1E7C4
:10721C00002070470120704710B59DF8084044EAE3
:10722C00032343EA024242EA0161042341600375ED
:10723C0010BD000037B5044D05609DF81850009541
:10724C00FFF7EAFF03B030BDBC980D0013B5054B3A
:10725C000360CB7800938B784A780978FFF7DCFFD2
:10726C0002B010BDBC980D00014B024A1A60704769
:10727C005CE60320C8980D00002340681A46FFF70F
:10728C0007BE406800220221FFF712BE00224068B0
:10729C001146FFF705BE002240681146FFF710BEED
:1072AC00002340681A461946FFF712BE00234068B7
:1072BC001A461946FFF714BE40680021FFF738BE86
:1072CC0040680021FFF73CBE4068002281F00101BC
:1072DC00FFF70EBE40680022FFF71ABE002240687E
:1072EC001146FFF71DBE002240681146FFF708BE8D
:1072FC002DE9F043002495B016460D460746FFF7DE
:10730C0055FF214618220EA8009401F09FF9402346
:10731C00CDE90C3421466B460CAA3046FFF774FCC1
:10732C00044600284CD1024601216868FFF7C8FDCD
:10733C000221804622466868FFF7C2FD009E814606
:10734C002146002E3CD000293AD17368022B03D081
:10735C000A2B11D0F669F4E7B8F1000F0AD0716965
:10736C0006A8043107ADFFF771FF0FCD3C1D0FC40C
:10737C002B6823704146EDE7B9F1000F01D1494666
:10738C00E8E77469102201A801F060F906238DF872
:10739C00143001AD04F108031834186859682A46F2
:1073AC0003C20833A3421546F7D101A906A807ADBD
:1073BC00FFF70AFF0FCD3C1D0FC42B682370DEE7CF
:1073CC000098FFF719FC384615B0BDE8F0830000B3
:1073DC00024B034A1A6000225A60704760E6032091
:1073EC00D4980D00F8B506460D468F180024BD4202
:1073FC000CD0336815F8011B9B6830469847031E68
:10740C0001DB1C44F3E7002C08BF1C462046F8BDEA
:10741C0013B50446084659B1019101F04DF92368A2
:10742C000199DB680246204602B0BDE810401847BF
:10743C0002B010BD08B5FFF7EBFF08BD03689B68F1
:10744C00184738B50D210546FFF7F8FF0A21044609
:10745C002846FFF7F3FF204438BD38B50546FFF743
:10746C00D7FF04462846FFF7ECFF204438BD30B563
:10747C008BB000238DF82430012A98BF0A2209AC66
:10748C000D46B1FBF2F101FB125303F0FF03092B84
:10749C0094BF30333733DBB2AA4204F8013DEFD945
:1074AC002146FFF7B5FF0BB030BD2DE9F04186B09A
:1074BC0000AF05460E46381D142114463B60FFF7FD
:1074CC0067FD13280ED8391D2846FFF7A1FF044687
:1074DC001EB12846FFF7B5FF044420461837BD46B9
:1074EC00BDE8F08100F1080323F00703E846ADEB9B
:1074FC00030D2246411C3B686846FFF749FD69466F
:10750C002846FFF785FF0446C546E1E710B504465B
:10751C00FFF761FD204610BD0348044A04490023CF
:10752C00836000F053BF00BF68E6032004E503202E
:10753C0019750D000021FFF7CFBB0021FFF7D4BB5D
:10754C0010B5044608462170FFF7A6FB00236360C4
:10755C00204610BD10B504460078FFF7EBFF48B984
:10756C0020784FF6FF71FFF787FB2078BDE81040BD
:10757C00FFF7E3BF10BD0078FFF7DFBF400830B561
:10758C001860002418688842E5B206D90134082C2A
:10759C0002D040081860F5E70725024B5B5D1370BD
:1075AC0030BD00BF08990D002DE9F04306468FB0A1
:1075BC0000780C46FFF7BEFF00281BDB3578142241
:1075CC00002109A801F042F80B23002209A9284642
:1075DC00ADF82430FFF770FB9DF82D3013B19DF8FA
:1075EC002C5055B10027B946B846012523795DB119
:1075FC00C3B100200FB0BDE8F083DDF830809DF8FA
:10760C0034909DF83570F1E7002B35D1A3684345D4
:10761C0008D18DF820908DF82170BDF82020A38919
:10762C009A42E6D00023A1688DF80F300A9804AB7B
:10763C000DF10F02FFF7A2FF217985B989B9A36873
:10764C0043450ED38DF820908DF82170BDF8202085
:10765C00A3899A4205D1049B434502D1C9E700296D
:10766C00F9D100230193637B00939DF80F20237BBA
:10767C003078FFF729FBBCE7CDE900552B462A46AD
:10768C000121F5E708B50078FFF7FEFAC0B208BD96
:10769C0010B50446FFF7F0F9E060236820465B69FB
:1076AC009847002808DAFFF7E7F9E368C01AA368DF
:1076BC009842F2D34FF0FF3010BDF8B506460D4698
:1076CC0017460024BC4207D03046FFF7E1FF031EEB
:1076DC0002DB2B550134F5E72046F8BD10B5044606
:1076EC000068FFF73DFC204610BD10B5044600684D
:1076FC0008B1FFF735FC0023C4E90133236010BD4A
:10770C0038B504460D4600680131FFF731FC10B165
:10771C00C4E90005012038BD10B50368044623B147
:10772C0043688B4201D3012010BD2046FFF7E8FFD0
:10773C000028F9D0A368002BF5D122681370F2E76A
:10774C0037B50D46114601920446FFF7E5FF019A45
:10775C0028B92046FFF7C9FF204603B030BDA26010
:10776C002946206800F064FF2268A3680021D154E8
:10777C00F2E7002313B5C0E90033044683600373BA
:10778C0041B10846019100F097FF0199024620464D
:10779C00FFF7D6FF204602B010BD13B5044659B111
:1077AC000846019100F088FF019902462046FFF738
:1077BC00C7FF204602B010BDFFF797FFF9E708B5E9
:1077CC0082683AB921B10878B0FA80F0400900E03B
:1077DC00012008BD006809B90078F5E700F062FFE8
:1077EC00F2E710B50446006818B1FFF7B9FB0023A7
:1077FC00236010BD10B50446FFF7F3FF204610BD03
:10780C0010B5094B094C022200201A60084B20606D
:10781C00A080A071A360FFF7F7FA2046054A06493D
:10782C00BDE8104000F0D2BD84E6032078E60320CA
:10783C000000FFFF04E5032001780D0013B5036879
:10784C008DF80710DC6B01224FF0FF330DF10701AF
:10785C00A04702B010BD10B40368DC6B4FF0FF33CF
:10786C00A4465DF8044B604713B5134602688DF8C7
:10787C000710D46B0DF107010122A04702B010BD17
:10788C00704738B543691A68002A054610DAB3F810
:10789C008620B3F884309A420AD103681B69984752
:1078AC00044628B92B682846DB6A9847204638BD21
:1078BC000120FCE743691868C043C00F704770474C
:1078CC00064B994210B500F10C0405D0084600F0A7
:1078DC0087FD002808BF0024204610BD48980D00E5
:1078EC0010B5AC21044600F076FD204610BDFCF727
:1078FC00CEBB2DE9F0414FF0000886B01D46C0F814
:10790C00048004460E4617464146102202A800F099
:10791C009DFE6B1C09D04FF47A70B5FBF0F3CDE9EA
:10792C00023800FB135358430490606910230093F2
:10793C00006802AB41F2050240F6FF71FFF76CF9EB
:10794C00002807DAFFF72CFB03686360002006B001
:10795C00BDE8F0816069002300683A463146FFF7C4
:10796C007BF9031EEEDB1846F1E7000038B584699D
:10797C000A4B036005467CB16368013B63605BB9ED
:10798C00236820469B689847A368013BA3601BB9FA
:10799C0023682046DB689847284638BD4C990D0073
:1079AC0010B50446FFF7E2FF20461C2100F013FD42
:1079BC00204610BD70B54D69054B04468C3544F816
:1079CC00043B06460FCD0FC42B682370304670BDA8
:1079DC00BC980D0010B54369B3F88620B3F8843019
:1079EC009A42044605D06369B3F88420134418798D
:1079FC0010BD03681B6998470028F4D14FF0FF3085
:107A0C00F6E710B54369B3F88620B3F884309A4290
:107A1C00044608D06369B3F88420511CA3F8841081
:107A2C001344187910BD03681B6998470028F1D1DD
:107A3C004FF0FF30F6E7F8B543691746B3F88620E8
:107A4C00B3F884309A4205460E4616D06969B1F8EF
:107A5C008430B1F88640E41ABC4228BF3C4604335B
:107A6C0022461944304600F0E3FD6A69B2F88430CE
:107A7C002344A2F884302046F8BD03681B6998475C
:107A8C000028E3D14FF0FF34F5E742690023A2F858
:107A9C0084304269A2F8863070472DE9F0411F46C8
:107AAC0003680C46DB6A8AB0054616469847237D68
:107ABC00D5F81480042B0CBF02200A2006220121C9
:107ACC00FFF7D2F8C8F800006B691B68002B08DAC6
:107ADC002B682846DB6A0024984720460AB0BDE88C
:107AEC00F0812846FFF7D1FFB7B1002303A9F8B204
:107AFC000393ADF81030FFF75FF80028E8D1686900
:107B0C0006230093006803AB41F20B0240F6FF71B1
:107B1C00FFF782F80028DBD11C22002103A800F01B
:107B2C0095FD237D042B1DD14FF407733046ADF822
:107B3C000C30FFF759F8ADF80E006068FFF74CF801
:107B4C0004906B691C22186803A9FFF775F80028CC
:107B5C00BED104340FCC6D698C350FC523682B70E6
:107B6C000124BAE740F61C233046ADF80C30FFF781
:107B7C003BF805AEADF80E00231D04F11407186890
:107B8C005968324603C20833BB421646F7D1D8E7D0
:107B9C0030B54269B2F886308BB004462BB1B2F8DE
:107BAC0084209A4201D1FFF770FF616908680028B0
:107BBC0018DBB1F886507F2D14D804310823C5F199
:107BCC0080022944FFF740F8002813DD6369B3F8FD
:107BDC0086200AB9A3F884206369B3F88620104480
:107BEC00A3F886006369B3F88600B3F88430C01A32
:107BFC000BB030BDFFF7D4F903680B2BF2D0FFF7B5
:107C0C00CFF903680B2BEDD020230025CDE90235ED
:107C1C00FFF7C6F903680193084B0949009302AAC0
:107C2C002B463220FFF7E8F863691868FEF7FCFF73
:107C3C0063694FF0FF321A60D4E700BF17990D004B
:107C4C0010990D0010B5436904461868002801DB33
:107C5C00FEF7EAFF63694FF0FF321A606069112288
:107C6C0000218C3000F0F2FC2046BDE81040FFF7FC
:107C7C000CBF10B5002304460160C0F88430883076
:107C8C00FFF794FA204610BD73B500234FF47A72B7
:107C9C00C0E901320E4A0361026043610446AC2024
:107CAC000191FCF7F0F9051E05F10C0608D0012333
:107CBC00C5E90133074B01992B603046FFF7D9FF1B
:107CCC002046C4E90565FFF7E0FE02B070BD00BFB9
:107CDC004C990D0030990D0010B54FF0FF31044652
:107CEC00FFF7D2FF204610BD10B5044600680028EF
:107CFC0001DBFEF799FF204610BD0C30FFF7F4BFF7
:107D0C0070B586B0064601AD6846FFF79FFA0FCDF9
:107D1C00341D0FC42B682370304606B070BD0000B4
:107D2C002DE9F0439846036893B00D460024DB6AB6
:107D3C0006461746984728466B462246214600942D
:107D4C00FEF762FF0546002863D1009B002B4BD049
:107D5C005B69002B48D006A8FFF728FA009B5C69EA
:107D6C006378022B04D1211D06A8FFF7C9FF26E07A
:107D7C000A2B24D11122294601A800F067FCA36824
:107D8C00002B38D004F108030DF1040C18341868DA
:107D9C005968624603C20833A3429446F7D10623BE
:107DAC0001A90CA88DF81430FFF70EFA0DF1340C64
:107DBC00BCE80F0007AC0FC4DCF80030237006A839
:107DCC00FFF714FA80B1336807ADD3F82090124B4B
:107DDC000C930FCD0DAC0FC42B6823703A46434661
:107DEC000CA93046C84705460098FEF705FF284603
:107DFC0013B0BDE8F083E368002BC3D14FF6FF70DE
:107E0C00D4F81090FEF7E8FE8145BBD104F11401C3
:107E1C00AAE72546E8E700BFBC980D00024B1A689C
:107E2C00024B1A60704700BF9CE4032088E60320D5
:107E3C0070474174704708B5007CFEF795FF20EA47
:107E4C00E07008BD08B5007CFEF766FF20EAE07024
:107E5C0008BD08B5007CFEF76FFF40EAE07008BD76
:107E6C0008B5007CFEF760FF40EAE07008BD007CBE
:107E7C00FEF76ABF37B5457C04462DB1207C03B0B4
:107E8C00BDE83040FEF740BF007C0191FEF76CFF6F
:107E9C0000280199F2DC284603B030BD10B514213E
:107EAC00044600F098FA204610BD000010B54FF0C3
:107EBC00000C0446084611464FF47A72C4E901C21C
:107ECC00044A22600122207462741A46FEF714FFE1
:107EDC00204610BDB4990D0013B50E4C2178BFF39C
:107EEC005B8F11F0010112D120460191FCF7DEF8F5
:107EFC00019960B1084A094B0948FFF7D7FF2046A2
:107F0C00FCF7D9F8074A0849054800F05FFA04481D
:107F1C0002B010BD8CE6032090E6032014E703208A
:107F2C0098E7032004E503203D7E0D004174704763
:107F3C00704708B50021007CFEF73EFF40EAE07078
:107F4C0008BD08B50121007CFEF736FF40EAE07061
:107F5C0008BD08B5007CFEF727FF20EAE07008BDDD
:107F6C0008B5007CFEF718FF20EAE07008BD13B5D9
:107F7C000446007C0191FEF717FF0028019901DCF3
:107F8C00607C20B1207CFEF71FFF20EAE07002B07D
:107F9C0010BD007CFEF720BF10B51421044600F084
:107FAC001AFA204610BD000010B54FF47A7304463F
:107FBC0008460021C4E90113044B236001232074FB
:107FCC0063741146FEF7D8FE204610BDE4990D00EF
:107FDC00007C0022FEF7D8BE10B514220446002106
:107FEC0000F034FB204610BD10B5104C88B003A82F
:107FFC00FFF7F2FF2178BFF35B8F11F0010111D174
:10800C0020460191FCF752F8019958B103AA08488F
:10801C00FFF7CAFF2046FCF74EF8064A064904480B
:10802C0000F0D4F9024808B010BD00BFACE7032043
:10803C00B0E7032004E503203D7F0D0000224068DB
:10804C001146FEF73DBF002240681146FEF758BFAF
:10805C00002240681146FEF763BF40680022FEF71D
:10806C0057BF4068002281F00101FEF741BF002399
:10807C0040681A461946FEF733BF002340681A467B
:10808C001946FEF725BF002240681146FEF708BFCF
:10809C00406800220221FEF70BBF002340681A46FD
:1080AC00FEF7F6BE024B04225A60024A1A60704771
:1080BC00C4E70320149A0D00014B1860704700BFF1
:1080CC00A0E4032008B50B4B43B1FFF78DFF036809
:1080DC001B699847002801DDAFF30080064B43B1C4
:1080EC00FFF7FAFE03681B699847002801DDAFF320
:1080FC00008008BD000000000000000008B5FFF77C
:10810C00E1FFFEF7B9FC014B186008BDD4E7032072
:10811C000248034A0349121A00F08ABA00F40320F9
:10812C0004F40320709C0D0007B5002300931A463D
:10813C006FF07701FEF78AFE03B05DF804FB0000D8
:10814C0007B543880A2B08D0502B0BD1094B1B6861
:10815C004BB103B05DF804EB1847FFF7E5FF03B034
:10816C005DF804FB002300931A466FF07701FEF7CD
:10817C006DFEF4E7D0E7032038B5124C1248134DCE
:10818C000021FEF715FF2368AB42114B0CBF0122F7
:10819C0000221A7002D0FFF7BBFF2560FEF75CFCD3
:1081AC00044600F05BFA0B4B13B12046AFF3008092
:1081BC0000210848FEF764FEBDE83840064800215F
:1081CC00FEF73ABE00F40320C5800D001E1C279A52
:1081DC00CCE70320000000004D810D00232813B5CF
:1081EC0002D9002002B010BDA0F10B03022B1AD84B
:1081FC00174C2178BFF35B8F11F001010BD1204696
:10820C000191FBF753FF019928B11248FFF798F938
:10821C002046FBF750FF0F4B1878FEF745FD002862
:10822C00DFD10120DEE7012809D800F0A7F80021F2
:10823C00007CFEF7B1FC80F00100C0B2D2E7093837
:10824C000128EED8FFF748FE007CFEF785FDF2E72B
:10825C0044E6032048E60320232838B504460D469F
:10826C000AD8FF2908D0FFF7B9FF28B129462046C4
:10827C00BDE83840FEF710BC38BD38B504460D4695
:10828C00FEF712FCFF2810D0062804D84D2323FA41
:10829C0000F0C30709D42046FFF7A0FF28B12946F8
:1082AC002046BDE83840FEF707BC38BD10B5044683
:1082BC00FEF7FAFB031FDBB2012B08D92046FFF7B0
:1082CC008DFF20B12046BDE81040FEF7FDBB00201D
:1082DC0010BD0D2810B504469CBF0E34A4B2204628
:1082EC00FFF77CFF50B103212046FEF7CDFB03289E
:1082FC0004D12046BDE81040FEF7F6BB002010BDAF
:10830C0038B504460D46FFF769FFF0B1042120464D
:10831C00FEF7BAFB042805D1A9B22046BDE83840C7
:10832C00FEF7DABB02212046FEF7AEFB02280CD189
:10833C002046FEF7B9FB012801D0042805D12946B7
:10834C002046BDE83840FEF7D7BB38BD38B5002312
:10835C00202543801423044603808560056106496B
:10836C00284600F03AF804496060284600F035F8D9
:10837C00E060204638BD00BF489A0D0030B50F4D67
:10838C002978BFF35B8F11F0010487B013D1284615
:10839C00FBF78CFE78B101A8FFF7D8FF01AA2146A4
:1083AC000748FEF79FFE2846FBF785FE054A06495F
:1083BC00034800F00BF8024807B030BDD8E70320A3
:1083CC00DCE7032004E5032099700D000B46014601
:1083DC00184600F01FB9FBF75ABEFBF756BE00005B
:1083EC00014900F0F9B800BF649A0D007FB5002474
:1083FC001023CDE90234036800949E698DF8044083
:10840C0015466B461268B0479DF8043003F006031E
:10841C00062B03BF009B2B600120204604B070BDCF
:10842C000098904214BF01200620704710B5034BF2
:10843C000360044600F0CDF8204610BDA49A0D0050
:10844C0010B50446FFF7F2FF20460821FFF7C3FFE3
:10845C00204610BD2DE9F0411F46DDE90834DDF85A
:10846C00188098450646154607D1079900F0B4F8D0
:10847C0018B165710020BDE8F0813946304600F036
:10848C00ABF80028F6D00123C4F800802571A37145
:10849C00F0E738B515461C4600F09EF820B10823CD
:1084AC00E36006232560237138BD73B505460C4681
:1084BC0001921E4600F090F850B9032E08D823689C
:1084CC00019A5B692946204602B0BDE87040184706
:1084DC0002B070BD10B5034B03600446FFF7A6FF56
:1084EC00204610BD049B0D0010B50446FFF7F2FFAB
:1084FC0020460C21FFF76FFF204610BDF7B5089FF3
:10850C00974205460E4614460AD0A868026808979A
:10851C00156A31462246AC4603B0BDE8F0406047D0
:10852C001946019300F058F8019B0028EDD0062065
:10853C0003B0F0BD2DE9F14F0D461946DDE90A4BAC
:10854C00DDE90CA681461746984600F045F890B137
:10855C00002D3460377109DB61198A450CBF062187
:10856C000121B171002001B0BDE8F08F0235F9D1C5
:10857C000123B371F6E7544506D15946484600F03D
:10858C002BF808B17771EDE7D9F808000368CDE94D
:10859C000CA6CDE90A4BDC693A4643462946A4466B
:1085AC0001B0BDE8F04F60472DE9F04107460C469D
:1085BC0015461E46FFF76DFF48B9B86803689F69FA
:1085CC002A4633462146BC46BDE8F0416047BDE82B
:1085DC00F081704700207047814208B50ED040688A
:1085EC0003782A2B0CD049680B782A2B08BF013151
:1085FC0000F058F8B0FA80F0400908BD0120FCE703
:10860C000020FAE70A22002100F0ECB80A2200212F
:10861C0000F0E8B810B5054C13462CB10A460146DB
:10862C000220AFF3008010BD2046FCE700000000E4
:10863C000A44914200F1FF3300D1704710B511F894
:10864C00014B03F8014F9142F9D110BD024403468E
:10865C00934200D1704703F8011BF9E738B50D4B75
:10866C001D68AB6B04467BB91820FEF771FC0A4AF7
:10867C000A4BA863C0E90023094B83600B23838159
:10868C0001220023C0E90423AB6B00221C615A6158
:10869C0038BD00BFA0E403200E33CDAB34126DE621
:1086AC00ECDE050010F8012B11F8013B012A28BF64
:1086BC009A42F7D0D01A7047034613F8012B002AC0
:1086CC00FBD1181A0138704710B50139034632B185
:1086DC0011F8014F03F8014B013A002CF7D11A4461
:1086EC000021934200D110BD03F8011BF9E70000F3
:1086FC002DE9F0473A4E86468C4660461CF8014BF5
:10870C00A55D15F00805F8D12D2C33D19CF800404F
:10871C004FF0010800F1020C002B5CD0102B0CD197
:10872C00302C0AD19CF8000000F0DF0058284DD105
:10873C009CF8014010230CF1020C08F10047013F9A
:10874C000026B7FBF3F9304603FB197AA4F1300588
:10875C00092D18D82C46A34224DD751C07D0814561
:10876C001DD301D1A2451ADB00FB034001261CF8E6
:10877C00014BEBE72B2C08BF9CF80040A84608BF28
:10878C0000F1020CC8E7A4F14105192D01D8373CC2
:10879C00E1E7A4F16105192D04D8573CDBE74FF054
:1087AC00FF36E4E7731C06D12223CEF8003038469E
:1087BC0042B9BDE8F087B8F1000F00D04042002A62
:1087CC00F7D00EB10CF1FF311160F2E73024002B21
:1087DC00B3D10823B1E7302CA4D00A23ADE700BFF6
:1087EC003E9B0D0013460A46014602480068FFF7FF
:1087FC007FBF00BFA0E403201D400D0059400D00B9
:10880C0081400D0085400D00000000002573004FD5
:10881C004E004F464600256900256C69007465734F
:10882C0074546F7069632F77626B0031003000698C
:10883C006E006F75740070776D006477006177005F
:10884C004651493364373953435745486B4D41635F
:10885C00746F5F565A4C7344486D4C725556505554
:10886C0000736F6D657468696E6700412077617382
:10887C002070726573736564004220776173207099
:10888C007265737365640043207761732070726541
:10889C0073736564006C61622E74686577636C2E0B
:1088AC00636F6D00626C6E6B696E6600766572004C
:1088BC00312E302E3000682D626561740034350025
:1088CC00627566662D696E003130323400646576EF
:1088DC00005061727469636C65006275696C640048
:1088EC004A756C20313220323032312031333A30FB
:1088FC00393A303500000000044D51545404000640
:10890C004D51497364700300000000003E5B4F5BE7
:10891C003E3E6B4F6B3E1C3E7C3E1C183C7E3C1816
:10892C001C577D571C1C5E7F5E1C00183C1800FFFA
:10893C00E7C3E7FF0018241800FFE7DBE7FF304828
:10894C003A060E2629792926407F050507407F0522
:10895C00253F5A3CE73C5A7F3E1C1C08081C1C3E19
:10896C007F14227F22145F5F005F5F06097F017F07
:10897C00006689956A606060606094A2FFA29408AA
:10898C00047E040810207E201008082A1C08081CED
:10899C002A08081E101010100C1E0C1E0C30383E2D
:1089AC003830060E3E0E06000000000000005F008E
:1089BC00000007000700147F147F14242A7F2A125A
:1089CC002313086462364956205000080703000040
:1089DC001C2241000041221C002A1C7F1C2A080872
:1089EC003E08080080703000080808080800006085
:1089FC00600020100804023E5149453E00427F4071
:108A0C000072494949462141494D331814127F10CF
:108A1C0027454545393C4A49493141211109073619
:108A2C0049494936464949291E00001400000040B6
:108A3C0034000000081422411414141414004122B0
:108A4C00140802015909063E415D594E7C1211125F
:108A5C007C7F494949363E414141227F4141413E5B
:108A6C007F494949417F090909013E414151737FC1
:108A7C000808087F00417F41002040413F017F08EA
:108A8C001422417F404040407F021C027F7F04083B
:108A9C00107F3E4141413E7F090909063E4151216B
:108AAC005E7F09192946264949493203017F010392
:108ABC003F4040403F1F2040201F3F4038403F6315
:108ACC001408146303047804036159494D43007F6F
:108ADC004141410204081020004141417F04020140
:108AEC0002044040404040000307080020545478E2
:108AFC00407F284444383844444428384444287F30
:108B0C00385454541800087E090218A4A49C787F89
:108B1C000804047800447D40002040403D007F1054
:108B2C0028440000417F40007C047804787C0804D1
:108B3C0004783844444438FC182424181824241885
:108B4C00FC7C08040408485454542404043F442472
:108B5C003C4040207C1C2040201C3C4030403C448D
:108B6C00281028444C9090907C4464544C44000849
:108B7C003641000000770000004136080002010277
:108B8C0004023C2623263C1EA1A161123A4040203F
:108B9C007A385454555921555579412254547842B8
:108BAC00215554784020545579400C1E527212397C
:108BBC005555555939545454593955545458000035
:108BCC00457C410002457D420001457C407D1211EF
:108BDC00127DF0282528F07C545545002054547CF7
:108BEC00547C0A097F4932494949323A4444443A4F
:108BFC00324A4848303A4141217A3A424020780082
:108C0C009DA0A07D3D4242423D3D4040403D3C2424
:108C1C00FF2424487E4943662B2FFC2F2BFF092968
:108C2C00F620C0887E090320545479410000447D0D
:108C3C00413048484A32384040227A007A0A0A7257
:108C4C007D0D19317D2629292F2826292929263001
:108C5C00484D4020380808080808080808382F1024
:108C6C00C8ACBA2F102834FA00007B000008142A74
:108C7C00142222142A14085500550055AA55AA5539
:108C8C00AAFF55FF55FF000000FF00101010FF0059
:108C9C00141414FF001010FF00FF1010F010F0144B
:108CAC001414FC001414F700FF0000FF00FF141450
:108CBC00F404FC141417101F10101F101F1414149C
:108CCC001F00101010F0000000001F101010101FDB
:108CDC0010101010F010000000FF101010101010E9
:108CEC00101010FF10000000FF140000FF00FF0028
:108CFC00001F10170000FC04F414141710171414A0
:108D0C00F404F40000FF00F714141414141414F7F2
:108D1C0000F7141414171410101F101F141414F44B
:108D2C00141010F010F000001F101F0000001F1492
:108D3C00000000FC140000F010F01010FF10FF14E5
:108D4C001414FF141010101F00000000F010FFFF8F
:108D5C00FFFFFFF0F0F0F0F0FFFFFF00000000005D
:108D6C00FFFF0F0F0F0F0F3844443844FC4A4A4A98
:108D7C00347E02020606027E027E0263554941637E
:108D8C003844443C04407E201E2006027E02029998
:108D9C00A5E7A5991C2A492A1C4C7201724C304A31
:108DAC004D4D303048784830BC625A463D3E4949BA
:108DBC0049007E0101017E2A2A2A2A2A44445F4462
:108DCC004440514A444040444A51400000FF010392
:108DDC00E080FF000008086B6B083612362436065C
:108DEC000F090F060000181800000010100030408A
:108DFC00FF0101001F01011E00191D1712003C3C50
:108E0C003C3C0000000000000000000000000000DE
:108E1C0000000000000000005D5D0D00F1730D000E
:108E2C00A5400D0065570D0067570D0099570D00B3
:108E3C0075570D0087570D00A9560D0065570D008D
:108E4C0091590D000B590D00B1570D00EF570D0046
:108E5C0029580D006F580D000D590D008B580D0041
:108E6C0064656661756C7420004D5342004C53422E
:108E7C00003C53504953657474696E677320646584
:108E8C006661756C743E003C53504953657474694B
:108E9C006E67732025732575202573204D4F44452F
:108EAC0025753E0000000000000000007D5E0D00F6
:108EBC006B5E0D006D5E0D00000000000001800077
:108ECC000000000000000000038000000000000013
:108EDC0000000007C000000000000000000007C0F8
:108EEC000000000000000000000FC00000000000A7
:108EFC00000000001FE00000000000000000001F48
:108F0C00E00000000000000000003FE00000000056
:108F1C0000000000003FF000000000000000000016
:108F2C007FF0000000000000001FF87FF000000040
:108F3C00000000003FFE7FF0000000000000003F3A
:108F4C00FF7FF0000000000000001FFFFBE00000AE
:108F5C0000000000000FFFF9FFC00000000000003F
:108F6C000FFFF9FFF800000000000007FFF1FFFF02
:108F7C0000000000000003FC73FFFF8000000000F5
:108F8C000001FE3FFFFF80000000000000FF1E0FED
:108F9C00FF000000000000007FFE1FFC000000002E
:108FAC000000003FFFFFF8000000000000000FDF92
:108FBC00FFE0000000000000001F19FFC0000000CF
:108FCC00000000003F3CFF00000000000000007E9D
:108FDC007CF800000000000000007FFE7C00000018
:108FEC000000000000FFFFFC00000000000000007B
:108FFC00FFFFFE0000000000000000FFFFFE00006D
:10900C00000000000001FFEFFE0000000000000067
:10901C0001FFCFFE0000000000000003FF07FE0070
:10902C0000000000000003FC07FE00000000000030
:10903C000003F003FE00000000000000018000FEB1
:10904C00000000000000000000007E000000000096
:10905C0000000000003E00000000000000000000C6
:10906C000C000000000000078000FC000003C000A2
:10907C000000078001FC000003C000000007800115
:10908C00FC000003C0000000078001E00000001E8F
:10909C00000000078001E00000001E007FE3F79F46
:1090AC00F9FDE7787BDFC0FFF7FFBFFDFDFF787BA5
:1090BC00DFC0FFF7FFBFFDFDFF787BDFC0F0F78758
:1090CC00BC3DE1FF787BDE00F0F787BC3DE1F0783A
:1090DC007BDE0000F787803DE1E0787BDE007FF7E8
:1090EC00879FFDE1E0787BDE00FFF787BFFDE1E0C5
:1090FC00787BDE00F0F787BC3DE1E0787BDE00F0AA
:10910C00F787BC3DE1E0787BDE00F0F787BC3DE102
:10911C00E0787BDE00FFF7FFBFFDE1E07FFBDFC007
:10912C00FFF7FFBFFDE1E07FFBDFC07CF3F39F3D6A
:10913C00E1E03E7BCFC0000000000000000000001A
:10914C0000FFFFFFFFFFFFFFFFFFFFC0FFFFFFFF61
:10915C00FD68DB111A31C0FFFFFFFFFD2B5AFB6AC4
:10916C00EFC0FFFFFFFFFD4B5B3B1A33C0FFFFFF60
:10917C00FFFD6B5BDB6AFDC00000600000000000BF
:10918C00000000000000000000E0000000000000F3
:10919C000000000000000001E000000000000000E2
:1091AC0000000000000001F00000000000000000C2
:1091BC00000000000003F0000000000000000000B0
:1091CC000000000007F0000000000000000000009C
:1091DC0000000007F8000000000000000000000084
:1091EC0000000FF800000003C0007E000001E0004A
:1091FC007F0FF800000003C000FE000001E000FF3C
:10920C00EFF800000003C000FE000001E000FFFFCB
:10921C00F800000003C000F00000000F007FFE7F8C
:10922C00C0000003C000F00000000F003FFE7FF8FC
:10923C003FF1FBCFFCFEF3BC3DEFE01FFE7FFF7F59
:10924C00FBFFDFFEFEFFBC3DEFE01FC6FFFF7FFB19
:10925C00FFDFFEFEFFBC3DEFE00FE3C7FE787BC3F4
:10926C00DE1EF0FFBC3DEF0007FF87FC787BC3DE02
:10927C001EF0F83C3DEF0001FFFFF0007BC3C01E69
:10928C00F0F03C3DEF0001F37FE03FFBC3CFFEF07D
:10929C00F03C3DEF0003E33F807FFBC3DFFEF0F0CB
:1092AC003C3DEF0007E73C00787BC3DE1EF0F03C52
:1092BC003DEF0007FFBE00787BC3DE1EF0F03C3DA7
:1092CC00EF0007FFFE00787BC3DE1EF0F03C3DEFA5
:1092DC00000FFFFE007FFBFFDFFEF0F03FFDEFE035
:1092EC000FFFFF007FFBFFDFFEF0F03FFDEFE00F15
:1092FC00F9FF003E79F9CF9EF0F01F3DE7E01FF13A
:10930C00FF0000000000000000000000001F80FFB4
:10931C00007FFFFFFFFFFFFFFFFFFFE01C007F0050
:10932C007FFFFFFFFEB46D888D18E000001F007FEB
:10933C00FFFFFFFE95AD7DB577E000000F007FFFCE
:10934C00FFFFFEA5AD9D8D19E0000006007FFFFF1D
:10935C00FFFEB5ADEDB57EE00000000000000000A2
:10936C00D15E0D00E95E0D005D5D0D00F1730D0029
:10937C00FD5E0D0065570D0067570D0099570D00E8
:10938C0075570D0087570D00A9560D0065570D0038
:10939C0091590D00B7600D004B660D00FD650D0079
:1093AC0029580D006F580D000D590D008B580D00EC
:1093BC000080C0E0F0F8FCFE000103070F1F3F7FA8
:1093CC00AED580A8D300408D2000A1C8DB40A4A658
:1093DC002EAFDA02818FDA1281DA02812200FF21AC
:1093EC000000000087680D0087680D0087680D007D
:1093FC0087680D0087680D0087680D0087680D0071
:10940C0087680D0087680D0087680D0087680D0060
:10941C0087680D0087680D0087680D0087680D0050
:10942C0087680D0087680D0087680D0087680D0040
:10943C0087680D0087680D0087680D0087680D0030
:10944C0087680D0087680D0087680D0087680D0020
:10945C0087680D0087680D0087680D0087680D0010
:10946C0087680D0087680D0087680D0087680D0000
:10947C0087680D0087680D0087680D0087680D00F0
:10948C0087680D0087680D0087680D0087680D00E0
:10949C0087680D0087680D0087680D0087680D00D0
:1094AC0087680D0087680D0087680D0087680D00C0
:1094BC0087680D0087680D0087680D0087680D00B0
:1094CC0087680D0087680D0087680D0087680D00A0
:1094DC0087680D0087680D0087680D0087680D0090
:1094EC0087680D0087680D0087680D0087680D0080
:1094FC0087680D0087680D0087680D0087680D0070
:10950C0087680D0087680D0087680D0087680D005F
:10951C0087680D0087680D0087680D0087680D004F
:10952C0087680D0087680D0087680D0087680D003F
:10953C0087680D0087680D0087680D0087680D002F
:10954C0087680D0087680D0087680D0087680D001F
:10955C0087680D0087680D0087680D0087680D000F
:10956C0087680D0087680D0087680D0087680D00FF
:10957C0087680D0087680D0087680D0087680D00EF
:10958C0087680D0087680D0087680D0087680D00DF
:10959C0087680D0087680D0087680D0087680D00CF
:1095AC0087680D0087680D0087680D0087680D00BF
:1095BC0087680D0087680D0087680D0087680D00AF
:1095CC0087680D0087680D0087680D0087680D009F
:1095DC0087680D0087680D0087680D0087680D008F
:1095EC0087680D0089680D0085420D0089680D00A3
:1095FC0089680D0089680D0089680D0089680D0067
:10960C0089680D0089680D0089680D0089680D0056
:10961C0089680D0089680D0089680D0089680D0046
:10962C0089680D0089680D0089680D0089680D0036
:10963C0089680D0089680D0089680D0089680D0026
:10964C0089680D0089680D0089680D0089680D0016
:10965C0089680D0089680D0089680D0089680D0006
:10966C0089680D0089680D0089680D0089680D00F6
:10967C0089680D0089680D0089680D0089680D00E6
:10968C0089680D0089680D0089680D0089680D00D6
:10969C0089680D0089680D0089680D0089680D00C6
:1096AC0089680D0089680D0089680D0089680D00B6
:1096BC0089680D0089680D0089680D0089680D00A6
:1096CC0089680D0089680D0089680D0089680D0096
:1096DC0089680D0089680D0089680D0089680D0086
:1096EC0089680D0089680D0089680D0089680D0076
:1096FC0089680D0089680D0089680D0089680D0066
:10970C0089680D0089680D0089680D0089680D0055
:10971C0089680D0089680D0089680D0089680D0045
:10972C0089680D0089680D0089680D0089680D0035
:10973C0089680D0089680D0089680D0089680D0025
:10974C0089680D0089680D0089680D0089680D0015
:10975C0089680D0089680D0089680D0089680D0005
:10976C0089680D0089680D0089680D0089680D00F5
:10977C0089680D0089680D0089680D0089680D00E5
:10978C0089680D0089680D0089680D0089680D00D5
:10979C0089680D0089680D0089680D0089680D00C5
:1097AC0089680D0089680D0089680D0089680D00B5
:1097BC0089680D0089680D0089680D0089680D00A5
:1097CC0089680D0089680D0089680D0089680D0095
:1097DC0089680D0089680D0089680D0089680D0085
:1097EC0089680D000000000000000000B5680D0045
:1097FC00D5680D005D5D0D00F1730D00FD5E0D0073
:10980C0065570D0067570D0099570D0075570D00E2
:10981C0087570D00A9560D0065570D0091590D0085
:10982C00B7600D004B660D00FD650D0029580D004D
:10983C006F580D000D590D008B580D0000000000E5
:10984C000000000000000000000000007B700D0014
:10985C0071700D0067700D005D700D0051700D0082
:10986C0045700D00C5720D00CD720D0039700D00E4
:10987C0031700D0027700D001D700D00FD720D0074
:10988C00000000000000000099700D00E3700D0056
:10989C00BB700D009B700D00C3700D00CB700D00E4
:1098AC00D3700D00DB700D00000000000000000004
:1098BC0055710D0045710D0047710D006170700000
:1098CC00000000000000000085720D008F720D007A
:1098DC0099720D00A3720D00AD720D00B9720D00DE
:1098EC00C5720D00CD720D00D5720D00E1720D0028
:1098FC00E9720D00F3720D00FD720D0000081018D6
:10990C0020283038776972696E670072656376203B
:10991C006572726F72203D2025640000000000000B
:10992C0000000000CB780D00ED780D00077D0D00D8
:10993C00FB780D00CD780D00000000000000000049
:10994C0079790D00AD790D0049780D0063780D0023
:10995C009D7B0D000F7A0D00E1790D008D780D00C7
:10996C00A77A0D002D7D0D00437A0D00517C0D0062
:10997C008F780D00C1780D0075780D00FF780D0003
:10998C00C1790D0025592D256D2D25645425483A96
:10999C00254D3A2553257A0061736374696D650012
:1099AC0000000000000000003D7E0D00A97E0D00AF
:1099BC00817E0D00F1730D00517E0D006D7E0D004A
:1099CC005F7E0D007B7E0D003F7E0D00437E0D0003
:1099DC0000000000000000003D7F0D00A57F0D0081
:1099EC007B7F0D00F1730D006D7F0D003F7F0D002F
:1099FC004F7F0D009F7F0D005F7F0D00397F0D00A5
:109A0C000000000000000000A7800D009D800D00EC
:109A1C0093800D0049800D0087800D007B800D0028
:109A2C00C5720D00CD720D006F800D0067800D00AA
:109A3C005D800D0053800D00FD720D0000537431DC
:109A4C00395F53705F6D616B655F736861726564DC
:109A5C005F74616700000000A49A0D00499A0D0024
:109A6C00049B0D00789A0D00289B0D004E31305F41
:109A7C005F637878616269763131375F5F636C61FF
:109A8C0073735F747970655F696E666F4500000073
:109A9C00000000006C9A0D0039840D004D840D00FF
:109AAC00E1850D00E1850D00B7840D00F9830D00F3
:109ABC009F840D0061840D002D840D00049B0D000E
:109ACC00D49A0D006C9A0D004E31305F5F6378783C
